{
	"contracts/send_withdraw_money.sol": {
		"SendWithdrawMoney": {
			"abi": [
				{
					"inputs": [],
					"stateMutability": "payable",
					"type": "constructor"
				},
				{
					"inputs": [],
					"name": "deposit",
					"outputs": [],
					"stateMutability": "payable",
					"type": "function"
				},
				{
					"inputs": [],
					"name": "getContractBalance",
					"outputs": [
						{
							"internalType": "uint256",
							"name": "",
							"type": "uint256"
						}
					],
					"stateMutability": "view",
					"type": "function"
				},
				{
					"inputs": [],
					"name": "status",
					"outputs": [
						{
							"internalType": "string",
							"name": "",
							"type": "string"
						}
					],
					"stateMutability": "view",
					"type": "function"
				},
				{
					"inputs": [],
					"name": "withdrawAll",
					"outputs": [],
					"stateMutability": "nonpayable",
					"type": "function"
				},
				{
					"inputs": [
						{
							"internalType": "address payable",
							"name": "to",
							"type": "address"
						}
					],
					"name": "withdrawToAddress",
					"outputs": [],
					"stateMutability": "nonpayable",
					"type": "function"
				}
			],
			"devdoc": {
				"kind": "dev",
				"methods": {},
				"version": 1
			},
			"evm": {
				"assembly": "    /* \"contracts/send_withdraw_money.sol\":61:719  contract SendWithdrawMoney {... */\n  mstore(0x40, 0x80)\n    /* \"contracts/send_withdraw_money.sol\":159:189  status=\"ready for transaction\" */\n  mload(0x40)\n  dup1\n  0x40\n  add\n  0x40\n  mstore\n  dup1\n  0x15\n  dup2\n  mstore\n  0x20\n  add\n  0x726561647920666f72207472616e73616374696f6e0000000000000000000000\n  dup2\n  mstore\n  pop\n    /* \"contracts/send_withdraw_money.sol\":159:165  status */\n  0x00\n    /* \"contracts/send_withdraw_money.sol\":159:189  status=\"ready for transaction\" */\n  swap1\n  dup2\n  tag_3\n  swap2\n  swap1\n  tag_4\n  jump\t// in\ntag_3:\n  pop\n    /* \"contracts/send_withdraw_money.sol\":61:719  contract SendWithdrawMoney {... */\n  jump(tag_5)\n    /* \"#utility.yul\":7:106   */\ntag_6:\n    /* \"#utility.yul\":59:65   */\n  0x00\n    /* \"#utility.yul\":93:98   */\n  dup2\n    /* \"#utility.yul\":87:99   */\n  mload\n    /* \"#utility.yul\":77:99   */\n  swap1\n  pop\n    /* \"#utility.yul\":7:106   */\n  swap2\n  swap1\n  pop\n  jump\t// out\n    /* \"#utility.yul\":112:292   */\ntag_7:\n    /* \"#utility.yul\":160:237   */\n  0x4e487b7100000000000000000000000000000000000000000000000000000000\n    /* \"#utility.yul\":157:158   */\n  0x00\n    /* \"#utility.yul\":150:238   */\n  mstore\n    /* \"#utility.yul\":257:261   */\n  0x41\n    /* \"#utility.yul\":254:255   */\n  0x04\n    /* \"#utility.yul\":247:262   */\n  mstore\n    /* \"#utility.yul\":281:285   */\n  0x24\n    /* \"#utility.yul\":278:279   */\n  0x00\n    /* \"#utility.yul\":271:286   */\n  revert\n    /* \"#utility.yul\":298:478   */\ntag_8:\n    /* \"#utility.yul\":346:423   */\n  0x4e487b7100000000000000000000000000000000000000000000000000000000\n    /* \"#utility.yul\":343:344   */\n  0x00\n    /* \"#utility.yul\":336:424   */\n  mstore\n    /* \"#utility.yul\":443:447   */\n  0x22\n    /* \"#utility.yul\":440:441   */\n  0x04\n    /* \"#utility.yul\":433:448   */\n  mstore\n    /* \"#utility.yul\":467:471   */\n  0x24\n    /* \"#utility.yul\":464:465   */\n  0x00\n    /* \"#utility.yul\":457:472   */\n  revert\n    /* \"#utility.yul\":484:804   */\ntag_9:\n    /* \"#utility.yul\":528:534   */\n  0x00\n    /* \"#utility.yul\":565:566   */\n  0x02\n    /* \"#utility.yul\":559:563   */\n  dup3\n    /* \"#utility.yul\":555:567   */\n  div\n    /* \"#utility.yul\":545:567   */\n  swap1\n  pop\n    /* \"#utility.yul\":612:613   */\n  0x01\n    /* \"#utility.yul\":606:610   */\n  dup3\n    /* \"#utility.yul\":602:614   */\n  and\n    /* \"#utility.yul\":633:651   */\n  dup1\n    /* \"#utility.yul\":623:704   */\n  tag_31\n  jumpi\n    /* \"#utility.yul\":689:693   */\n  0x7f\n    /* \"#utility.yul\":681:687   */\n  dup3\n    /* \"#utility.yul\":677:694   */\n  and\n    /* \"#utility.yul\":667:694   */\n  swap2\n  pop\n    /* \"#utility.yul\":623:704   */\ntag_31:\n    /* \"#utility.yul\":751:753   */\n  0x20\n    /* \"#utility.yul\":743:749   */\n  dup3\n    /* \"#utility.yul\":740:754   */\n  lt\n    /* \"#utility.yul\":720:738   */\n  dup2\n    /* \"#utility.yul\":717:755   */\n  sub\n    /* \"#utility.yul\":714:798   */\n  tag_32\n  jumpi\n    /* \"#utility.yul\":770:788   */\n  tag_33\n  tag_8\n  jump\t// in\ntag_33:\n    /* \"#utility.yul\":714:798   */\ntag_32:\n    /* \"#utility.yul\":535:804   */\n  pop\n    /* \"#utility.yul\":484:804   */\n  swap2\n  swap1\n  pop\n  jump\t// out\n    /* \"#utility.yul\":810:951   */\ntag_10:\n    /* \"#utility.yul\":859:863   */\n  0x00\n    /* \"#utility.yul\":882:885   */\n  dup2\n    /* \"#utility.yul\":874:885   */\n  swap1\n  pop\n    /* \"#utility.yul\":905:908   */\n  dup2\n    /* \"#utility.yul\":902:903   */\n  0x00\n    /* \"#utility.yul\":895:909   */\n  mstore\n    /* \"#utility.yul\":939:943   */\n  0x20\n    /* \"#utility.yul\":936:937   */\n  0x00\n    /* \"#utility.yul\":926:944   */\n  keccak256\n    /* \"#utility.yul\":918:944   */\n  swap1\n  pop\n    /* \"#utility.yul\":810:951   */\n  swap2\n  swap1\n  pop\n  jump\t// out\n    /* \"#utility.yul\":957:1050   */\ntag_11:\n    /* \"#utility.yul\":994:1000   */\n  0x00\n    /* \"#utility.yul\":1041:1043   */\n  0x20\n    /* \"#utility.yul\":1036:1038   */\n  0x1f\n    /* \"#utility.yul\":1029:1034   */\n  dup4\n    /* \"#utility.yul\":1025:1039   */\n  add\n    /* \"#utility.yul\":1021:1044   */\n  div\n    /* \"#utility.yul\":1011:1044   */\n  swap1\n  pop\n    /* \"#utility.yul\":957:1050   */\n  swap2\n  swap1\n  pop\n  jump\t// out\n    /* \"#utility.yul\":1056:1163   */\ntag_12:\n    /* \"#utility.yul\":1100:1108   */\n  0x00\n    /* \"#utility.yul\":1150:1155   */\n  dup3\n    /* \"#utility.yul\":1144:1148   */\n  dup3\n    /* \"#utility.yul\":1140:1156   */\n  shl\n    /* \"#utility.yul\":1119:1156   */\n  swap1\n  pop\n    /* \"#utility.yul\":1056:1163   */\n  swap3\n  swap2\n  pop\n  pop\n  jump\t// out\n    /* \"#utility.yul\":1169:1562   */\ntag_13:\n    /* \"#utility.yul\":1238:1244   */\n  0x00\n    /* \"#utility.yul\":1288:1289   */\n  0x08\n    /* \"#utility.yul\":1276:1286   */\n  dup4\n    /* \"#utility.yul\":1272:1290   */\n  mul\n    /* \"#utility.yul\":1311:1408   */\n  tag_38\n    /* \"#utility.yul\":1341:1407   */\n  0xffffffffffffffffffffffffffffffffffffffffffffffffffffffffffffffff\n    /* \"#utility.yul\":1330:1339   */\n  dup3\n    /* \"#utility.yul\":1311:1408   */\n  tag_12\n  jump\t// in\ntag_38:\n    /* \"#utility.yul\":1429:1468   */\n  tag_39\n    /* \"#utility.yul\":1459:1467   */\n  dup7\n    /* \"#utility.yul\":1448:1457   */\n  dup4\n    /* \"#utility.yul\":1429:1468   */\n  tag_12\n  jump\t// in\ntag_39:\n    /* \"#utility.yul\":1417:1468   */\n  swap6\n  pop\n    /* \"#utility.yul\":1501:1505   */\n  dup1\n    /* \"#utility.yul\":1497:1506   */\n  not\n    /* \"#utility.yul\":1490:1495   */\n  dup5\n    /* \"#utility.yul\":1486:1507   */\n  and\n    /* \"#utility.yul\":1477:1507   */\n  swap4\n  pop\n    /* \"#utility.yul\":1550:1554   */\n  dup1\n    /* \"#utility.yul\":1540:1548   */\n  dup7\n    /* \"#utility.yul\":1536:1555   */\n  and\n    /* \"#utility.yul\":1529:1534   */\n  dup5\n    /* \"#utility.yul\":1526:1556   */\n  or\n    /* \"#utility.yul\":1516:1556   */\n  swap3\n  pop\n    /* \"#utility.yul\":1245:1562   */\n  pop\n  pop\n    /* \"#utility.yul\":1169:1562   */\n  swap4\n  swap3\n  pop\n  pop\n  pop\n  jump\t// out\n    /* \"#utility.yul\":1568:1645   */\ntag_14:\n    /* \"#utility.yul\":1605:1612   */\n  0x00\n    /* \"#utility.yul\":1634:1639   */\n  dup2\n    /* \"#utility.yul\":1623:1639   */\n  swap1\n  pop\n    /* \"#utility.yul\":1568:1645   */\n  swap2\n  swap1\n  pop\n  jump\t// out\n    /* \"#utility.yul\":1651:1711   */\ntag_15:\n    /* \"#utility.yul\":1679:1682   */\n  0x00\n    /* \"#utility.yul\":1700:1705   */\n  dup2\n    /* \"#utility.yul\":1693:1705   */\n  swap1\n  pop\n    /* \"#utility.yul\":1651:1711   */\n  swap2\n  swap1\n  pop\n  jump\t// out\n    /* \"#utility.yul\":1717:1859   */\ntag_16:\n    /* \"#utility.yul\":1767:1776   */\n  0x00\n    /* \"#utility.yul\":1800:1853   */\n  tag_43\n    /* \"#utility.yul\":1818:1852   */\n  tag_44\n    /* \"#utility.yul\":1827:1851   */\n  tag_45\n    /* \"#utility.yul\":1845:1850   */\n  dup5\n    /* \"#utility.yul\":1827:1851   */\n  tag_14\n  jump\t// in\ntag_45:\n    /* \"#utility.yul\":1818:1852   */\n  tag_15\n  jump\t// in\ntag_44:\n    /* \"#utility.yul\":1800:1853   */\n  tag_14\n  jump\t// in\ntag_43:\n    /* \"#utility.yul\":1787:1853   */\n  swap1\n  pop\n    /* \"#utility.yul\":1717:1859   */\n  swap2\n  swap1\n  pop\n  jump\t// out\n    /* \"#utility.yul\":1865:1940   */\ntag_17:\n    /* \"#utility.yul\":1908:1911   */\n  0x00\n    /* \"#utility.yul\":1929:1934   */\n  dup2\n    /* \"#utility.yul\":1922:1934   */\n  swap1\n  pop\n    /* \"#utility.yul\":1865:1940   */\n  swap2\n  swap1\n  pop\n  jump\t// out\n    /* \"#utility.yul\":1946:2215   */\ntag_18:\n    /* \"#utility.yul\":2056:2095   */\n  tag_48\n    /* \"#utility.yul\":2087:2094   */\n  dup4\n    /* \"#utility.yul\":2056:2095   */\n  tag_16\n  jump\t// in\ntag_48:\n    /* \"#utility.yul\":2117:2208   */\n  tag_49\n    /* \"#utility.yul\":2166:2207   */\n  tag_50\n    /* \"#utility.yul\":2190:2206   */\n  dup3\n    /* \"#utility.yul\":2166:2207   */\n  tag_17\n  jump\t// in\ntag_50:\n    /* \"#utility.yul\":2158:2164   */\n  dup5\n    /* \"#utility.yul\":2151:2155   */\n  dup5\n    /* \"#utility.yul\":2145:2156   */\n  sload\n    /* \"#utility.yul\":2117:2208   */\n  tag_13\n  jump\t// in\ntag_49:\n    /* \"#utility.yul\":2111:2115   */\n  dup3\n    /* \"#utility.yul\":2104:2209   */\n  sstore\n    /* \"#utility.yul\":2022:2215   */\n  pop\n    /* \"#utility.yul\":1946:2215   */\n  pop\n  pop\n  pop\n  jump\t// out\n    /* \"#utility.yul\":2221:2294   */\ntag_19:\n    /* \"#utility.yul\":2266:2269   */\n  0x00\n    /* \"#utility.yul\":2221:2294   */\n  swap1\n  jump\t// out\n    /* \"#utility.yul\":2300:2489   */\ntag_20:\n    /* \"#utility.yul\":2377:2409   */\n  tag_53\n  tag_19\n  jump\t// in\ntag_53:\n    /* \"#utility.yul\":2418:2483   */\n  tag_54\n    /* \"#utility.yul\":2476:2482   */\n  dup2\n    /* \"#utility.yul\":2468:2474   */\n  dup5\n    /* \"#utility.yul\":2462:2466   */\n  dup5\n    /* \"#utility.yul\":2418:2483   */\n  tag_18\n  jump\t// in\ntag_54:\n    /* \"#utility.yul\":2353:2489   */\n  pop\n    /* \"#utility.yul\":2300:2489   */\n  pop\n  pop\n  jump\t// out\n    /* \"#utility.yul\":2495:2681   */\ntag_21:\n    /* \"#utility.yul\":2555:2675   */\ntag_56:\n    /* \"#utility.yul\":2572:2575   */\n  dup2\n    /* \"#utility.yul\":2565:2570   */\n  dup2\n    /* \"#utility.yul\":2562:2576   */\n  lt\n    /* \"#utility.yul\":2555:2675   */\n  iszero\n  tag_58\n  jumpi\n    /* \"#utility.yul\":2626:2665   */\n  tag_59\n    /* \"#utility.yul\":2663:2664   */\n  0x00\n    /* \"#utility.yul\":2656:2661   */\n  dup3\n    /* \"#utility.yul\":2626:2665   */\n  tag_20\n  jump\t// in\ntag_59:\n    /* \"#utility.yul\":2599:2600   */\n  0x01\n    /* \"#utility.yul\":2592:2597   */\n  dup2\n    /* \"#utility.yul\":2588:2601   */\n  add\n    /* \"#utility.yul\":2579:2601   */\n  swap1\n  pop\n    /* \"#utility.yul\":2555:2675   */\n  jump(tag_56)\ntag_58:\n    /* \"#utility.yul\":2495:2681   */\n  pop\n  pop\n  jump\t// out\n    /* \"#utility.yul\":2687:3230   */\ntag_22:\n    /* \"#utility.yul\":2788:2790   */\n  0x1f\n    /* \"#utility.yul\":2783:2786   */\n  dup3\n    /* \"#utility.yul\":2780:2791   */\n  gt\n    /* \"#utility.yul\":2777:3223   */\n  iszero\n  tag_61\n  jumpi\n    /* \"#utility.yul\":2822:2860   */\n  tag_62\n    /* \"#utility.yul\":2854:2859   */\n  dup2\n    /* \"#utility.yul\":2822:2860   */\n  tag_10\n  jump\t// in\ntag_62:\n    /* \"#utility.yul\":2906:2935   */\n  tag_63\n    /* \"#utility.yul\":2924:2934   */\n  dup5\n    /* \"#utility.yul\":2906:2935   */\n  tag_11\n  jump\t// in\ntag_63:\n    /* \"#utility.yul\":2896:2904   */\n  dup2\n    /* \"#utility.yul\":2892:2936   */\n  add\n    /* \"#utility.yul\":3089:3091   */\n  0x20\n    /* \"#utility.yul\":3077:3087   */\n  dup6\n    /* \"#utility.yul\":3074:3092   */\n  lt\n    /* \"#utility.yul\":3071:3120   */\n  iszero\n  tag_64\n  jumpi\n    /* \"#utility.yul\":3110:3118   */\n  dup2\n    /* \"#utility.yul\":3095:3118   */\n  swap1\n  pop\n    /* \"#utility.yul\":3071:3120   */\ntag_64:\n    /* \"#utility.yul\":3133:3213   */\n  tag_65\n    /* \"#utility.yul\":3189:3211   */\n  tag_66\n    /* \"#utility.yul\":3207:3210   */\n  dup6\n    /* \"#utility.yul\":3189:3211   */\n  tag_11\n  jump\t// in\ntag_66:\n    /* \"#utility.yul\":3179:3187   */\n  dup4\n    /* \"#utility.yul\":3175:3212   */\n  add\n    /* \"#utility.yul\":3162:3173   */\n  dup3\n    /* \"#utility.yul\":3133:3213   */\n  tag_21\n  jump\t// in\ntag_65:\n    /* \"#utility.yul\":2792:3223   */\n  pop\n  pop\n    /* \"#utility.yul\":2777:3223   */\ntag_61:\n    /* \"#utility.yul\":2687:3230   */\n  pop\n  pop\n  pop\n  jump\t// out\n    /* \"#utility.yul\":3236:3353   */\ntag_23:\n    /* \"#utility.yul\":3290:3298   */\n  0x00\n    /* \"#utility.yul\":3340:3345   */\n  dup3\n    /* \"#utility.yul\":3334:3338   */\n  dup3\n    /* \"#utility.yul\":3330:3346   */\n  shr\n    /* \"#utility.yul\":3309:3346   */\n  swap1\n  pop\n    /* \"#utility.yul\":3236:3353   */\n  swap3\n  swap2\n  pop\n  pop\n  jump\t// out\n    /* \"#utility.yul\":3359:3528   */\ntag_24:\n    /* \"#utility.yul\":3403:3409   */\n  0x00\n    /* \"#utility.yul\":3436:3487   */\n  tag_69\n    /* \"#utility.yul\":3484:3485   */\n  0x00\n    /* \"#utility.yul\":3480:3486   */\n  not\n    /* \"#utility.yul\":3472:3477   */\n  dup5\n    /* \"#utility.yul\":3469:3470   */\n  0x08\n    /* \"#utility.yul\":3465:3478   */\n  mul\n    /* \"#utility.yul\":3436:3487   */\n  tag_23\n  jump\t// in\ntag_69:\n    /* \"#utility.yul\":3432:3488   */\n  not\n    /* \"#utility.yul\":3517:3521   */\n  dup1\n    /* \"#utility.yul\":3511:3515   */\n  dup4\n    /* \"#utility.yul\":3507:3522   */\n  and\n    /* \"#utility.yul\":3497:3522   */\n  swap2\n  pop\n    /* \"#utility.yul\":3410:3528   */\n  pop\n    /* \"#utility.yul\":3359:3528   */\n  swap3\n  swap2\n  pop\n  pop\n  jump\t// out\n    /* \"#utility.yul\":3533:3828   */\ntag_25:\n    /* \"#utility.yul\":3609:3613   */\n  0x00\n    /* \"#utility.yul\":3755:3784   */\n  tag_71\n    /* \"#utility.yul\":3780:3783   */\n  dup4\n    /* \"#utility.yul\":3774:3778   */\n  dup4\n    /* \"#utility.yul\":3755:3784   */\n  tag_24\n  jump\t// in\ntag_71:\n    /* \"#utility.yul\":3747:3784   */\n  swap2\n  pop\n    /* \"#utility.yul\":3817:3820   */\n  dup3\n    /* \"#utility.yul\":3814:3815   */\n  0x02\n    /* \"#utility.yul\":3810:3821   */\n  mul\n    /* \"#utility.yul\":3804:3808   */\n  dup3\n    /* \"#utility.yul\":3801:3822   */\n  or\n    /* \"#utility.yul\":3793:3822   */\n  swap1\n  pop\n    /* \"#utility.yul\":3533:3828   */\n  swap3\n  swap2\n  pop\n  pop\n  jump\t// out\n    /* \"#utility.yul\":3833:5228   */\ntag_4:\n    /* \"#utility.yul\":3950:3987   */\n  tag_73\n    /* \"#utility.yul\":3983:3986   */\n  dup3\n    /* \"#utility.yul\":3950:3987   */\n  tag_6\n  jump\t// in\ntag_73:\n    /* \"#utility.yul\":4052:4070   */\n  0xffffffffffffffff\n    /* \"#utility.yul\":4044:4050   */\n  dup2\n    /* \"#utility.yul\":4041:4071   */\n  gt\n    /* \"#utility.yul\":4038:4094   */\n  iszero\n  tag_74\n  jumpi\n    /* \"#utility.yul\":4074:4092   */\n  tag_75\n  tag_7\n  jump\t// in\ntag_75:\n    /* \"#utility.yul\":4038:4094   */\ntag_74:\n    /* \"#utility.yul\":4118:4156   */\n  tag_76\n    /* \"#utility.yul\":4150:4154   */\n  dup3\n    /* \"#utility.yul\":4144:4155   */\n  sload\n    /* \"#utility.yul\":4118:4156   */\n  tag_9\n  jump\t// in\ntag_76:\n    /* \"#utility.yul\":4203:4270   */\n  tag_77\n    /* \"#utility.yul\":4263:4269   */\n  dup3\n    /* \"#utility.yul\":4255:4261   */\n  dup3\n    /* \"#utility.yul\":4249:4253   */\n  dup6\n    /* \"#utility.yul\":4203:4270   */\n  tag_22\n  jump\t// in\ntag_77:\n    /* \"#utility.yul\":4297:4298   */\n  0x00\n    /* \"#utility.yul\":4321:4325   */\n  0x20\n    /* \"#utility.yul\":4308:4325   */\n  swap1\n  pop\n    /* \"#utility.yul\":4353:4355   */\n  0x1f\n    /* \"#utility.yul\":4345:4351   */\n  dup4\n    /* \"#utility.yul\":4342:4356   */\n  gt\n    /* \"#utility.yul\":4370:4371   */\n  0x01\n    /* \"#utility.yul\":4365:4983   */\n  dup2\n  eq\n  tag_79\n  jumpi\n    /* \"#utility.yul\":5027:5028   */\n  0x00\n    /* \"#utility.yul\":5044:5050   */\n  dup5\n    /* \"#utility.yul\":5041:5118   */\n  iszero\n  tag_80\n  jumpi\n    /* \"#utility.yul\":5093:5102   */\n  dup3\n    /* \"#utility.yul\":5088:5091   */\n  dup8\n    /* \"#utility.yul\":5084:5103   */\n  add\n    /* \"#utility.yul\":5078:5104   */\n  mload\n    /* \"#utility.yul\":5069:5104   */\n  swap1\n  pop\n    /* \"#utility.yul\":5041:5118   */\ntag_80:\n    /* \"#utility.yul\":5144:5211   */\n  tag_81\n    /* \"#utility.yul\":5204:5210   */\n  dup6\n    /* \"#utility.yul\":5197:5202   */\n  dup3\n    /* \"#utility.yul\":5144:5211   */\n  tag_25\n  jump\t// in\ntag_81:\n    /* \"#utility.yul\":5138:5142   */\n  dup7\n    /* \"#utility.yul\":5131:5212   */\n  sstore\n    /* \"#utility.yul\":5000:5222   */\n  pop\n    /* \"#utility.yul\":4335:5222   */\n  jump(tag_78)\n    /* \"#utility.yul\":4365:4983   */\ntag_79:\n    /* \"#utility.yul\":4417:4421   */\n  0x1f\n    /* \"#utility.yul\":4413:4422   */\n  not\n    /* \"#utility.yul\":4405:4411   */\n  dup5\n    /* \"#utility.yul\":4401:4423   */\n  and\n    /* \"#utility.yul\":4451:4488   */\n  tag_82\n    /* \"#utility.yul\":4483:4487   */\n  dup7\n    /* \"#utility.yul\":4451:4488   */\n  tag_10\n  jump\t// in\ntag_82:\n    /* \"#utility.yul\":4510:4511   */\n  0x00\n    /* \"#utility.yul\":4524:4732   */\ntag_83:\n    /* \"#utility.yul\":4538:4545   */\n  dup3\n    /* \"#utility.yul\":4535:4536   */\n  dup2\n    /* \"#utility.yul\":4532:4546   */\n  lt\n    /* \"#utility.yul\":4524:4732   */\n  iszero\n  tag_85\n  jumpi\n    /* \"#utility.yul\":4617:4626   */\n  dup5\n    /* \"#utility.yul\":4612:4615   */\n  dup10\n    /* \"#utility.yul\":4608:4627   */\n  add\n    /* \"#utility.yul\":4602:4628   */\n  mload\n    /* \"#utility.yul\":4594:4600   */\n  dup3\n    /* \"#utility.yul\":4587:4629   */\n  sstore\n    /* \"#utility.yul\":4668:4669   */\n  0x01\n    /* \"#utility.yul\":4660:4666   */\n  dup3\n    /* \"#utility.yul\":4656:4670   */\n  add\n    /* \"#utility.yul\":4646:4670   */\n  swap2\n  pop\n    /* \"#utility.yul\":4715:4717   */\n  0x20\n    /* \"#utility.yul\":4704:4713   */\n  dup6\n    /* \"#utility.yul\":4700:4718   */\n  add\n    /* \"#utility.yul\":4687:4718   */\n  swap5\n  pop\n    /* \"#utility.yul\":4561:4565   */\n  0x20\n    /* \"#utility.yul\":4558:4559   */\n  dup2\n    /* \"#utility.yul\":4554:4566   */\n  add\n    /* \"#utility.yul\":4549:4566   */\n  swap1\n  pop\n    /* \"#utility.yul\":4524:4732   */\n  jump(tag_83)\ntag_85:\n    /* \"#utility.yul\":4760:4766   */\n  dup7\n    /* \"#utility.yul\":4751:4758   */\n  dup4\n    /* \"#utility.yul\":4748:4767   */\n  lt\n    /* \"#utility.yul\":4745:4924   */\n  iszero\n  tag_86\n  jumpi\n    /* \"#utility.yul\":4818:4827   */\n  dup5\n    /* \"#utility.yul\":4813:4816   */\n  dup10\n    /* \"#utility.yul\":4809:4828   */\n  add\n    /* \"#utility.yul\":4803:4829   */\n  mload\n    /* \"#utility.yul\":4861:4909   */\n  tag_87\n    /* \"#utility.yul\":4903:4907   */\n  0x1f\n    /* \"#utility.yul\":4895:4901   */\n  dup10\n    /* \"#utility.yul\":4891:4908   */\n  and\n    /* \"#utility.yul\":4880:4889   */\n  dup3\n    /* \"#utility.yul\":4861:4909   */\n  tag_24\n  jump\t// in\ntag_87:\n    /* \"#utility.yul\":4853:4859   */\n  dup4\n    /* \"#utility.yul\":4846:4910   */\n  sstore\n    /* \"#utility.yul\":4768:4924   */\n  pop\n    /* \"#utility.yul\":4745:4924   */\ntag_86:\n    /* \"#utility.yul\":4970:4971   */\n  0x01\n    /* \"#utility.yul\":4966:4967   */\n  0x02\n    /* \"#utility.yul\":4958:4964   */\n  dup9\n    /* \"#utility.yul\":4954:4968   */\n  mul\n    /* \"#utility.yul\":4950:4972   */\n  add\n    /* \"#utility.yul\":4944:4948   */\n  dup9\n    /* \"#utility.yul\":4937:4973   */\n  sstore\n    /* \"#utility.yul\":4372:4983   */\n  pop\n  pop\n  pop\n    /* \"#utility.yul\":4335:5222   */\ntag_78:\n  pop\n    /* \"#utility.yul\":3925:5228   */\n  pop\n  pop\n  pop\n    /* \"#utility.yul\":3833:5228   */\n  pop\n  pop\n  jump\t// out\n    /* \"contracts/send_withdraw_money.sol\":61:719  contract SendWithdrawMoney {... */\ntag_5:\n  dataSize(sub_0)\n  dup1\n  dataOffset(sub_0)\n  0x00\n  codecopy\n  0x00\n  return\nstop\n\nsub_0: assembly {\n        /* \"contracts/send_withdraw_money.sol\":61:719  contract SendWithdrawMoney {... */\n      mstore(0x40, 0x80)\n      jumpi(tag_1, lt(calldatasize, 0x04))\n      shr(0xe0, calldataload(0x00))\n      dup1\n      0x200d2ed2\n      eq\n      tag_2\n      jumpi\n      dup1\n      0x6f9fb98a\n      eq\n      tag_3\n      jumpi\n      dup1\n      0x853828b6\n      eq\n      tag_4\n      jumpi\n      dup1\n      0xa92bd72c\n      eq\n      tag_5\n      jumpi\n      dup1\n      0xd0e30db0\n      eq\n      tag_6\n      jumpi\n    tag_1:\n      0x00\n      dup1\n      revert\n        /* \"contracts/send_withdraw_money.sol\":97:117  string public status */\n    tag_2:\n      callvalue\n      dup1\n      iszero\n      tag_7\n      jumpi\n      0x00\n      dup1\n      revert\n    tag_7:\n      pop\n      tag_8\n      tag_9\n      jump\t// in\n    tag_8:\n      mload(0x40)\n      tag_10\n      swap2\n      swap1\n      tag_11\n      jump\t// in\n    tag_10:\n      mload(0x40)\n      dup1\n      swap2\n      sub\n      swap1\n      return\n        /* \"contracts/send_withdraw_money.sol\":285:389  function getContractBalance() public view returns (uint) {... */\n    tag_3:\n      callvalue\n      dup1\n      iszero\n      tag_12\n      jumpi\n      0x00\n      dup1\n      revert\n    tag_12:\n      pop\n      tag_13\n      tag_14\n      jump\t// in\n    tag_13:\n      mload(0x40)\n      tag_15\n      swap2\n      swap1\n      tag_16\n      jump\t// in\n    tag_15:\n      mload(0x40)\n      dup1\n      swap2\n      sub\n      swap1\n      return\n        /* \"contracts/send_withdraw_money.sol\":397:563  function withdrawAll() public {... */\n    tag_4:\n      callvalue\n      dup1\n      iszero\n      tag_17\n      jumpi\n      0x00\n      dup1\n      revert\n    tag_17:\n      pop\n      tag_18\n      tag_19\n      jump\t// in\n    tag_18:\n      stop\n        /* \"contracts/send_withdraw_money.sol\":571:716  function withdrawToAddress(address payable to) public {... */\n    tag_5:\n      callvalue\n      dup1\n      iszero\n      tag_20\n      jumpi\n      0x00\n      dup1\n      revert\n    tag_20:\n      pop\n      tag_21\n      0x04\n      dup1\n      calldatasize\n      sub\n      dup2\n      add\n      swap1\n      tag_22\n      swap2\n      swap1\n      tag_23\n      jump\t// in\n    tag_22:\n      tag_24\n      jump\t// in\n    tag_21:\n      stop\n        /* \"contracts/send_withdraw_money.sol\":206:277  function deposit() public payable {... */\n    tag_6:\n      tag_25\n      tag_26\n      jump\t// in\n    tag_25:\n      stop\n        /* \"contracts/send_withdraw_money.sol\":97:117  string public status */\n    tag_9:\n      0x00\n      dup1\n      sload\n      tag_27\n      swap1\n      tag_28\n      jump\t// in\n    tag_27:\n      dup1\n      0x1f\n      add\n      0x20\n      dup1\n      swap2\n      div\n      mul\n      0x20\n      add\n      mload(0x40)\n      swap1\n      dup2\n      add\n      0x40\n      mstore\n      dup1\n      swap3\n      swap2\n      swap1\n      dup2\n      dup2\n      mstore\n      0x20\n      add\n      dup3\n      dup1\n      sload\n      tag_29\n      swap1\n      tag_28\n      jump\t// in\n    tag_29:\n      dup1\n      iszero\n      tag_30\n      jumpi\n      dup1\n      0x1f\n      lt\n      tag_31\n      jumpi\n      0x0100\n      dup1\n      dup4\n      sload\n      div\n      mul\n      dup4\n      mstore\n      swap2\n      0x20\n      add\n      swap2\n      jump(tag_30)\n    tag_31:\n      dup3\n      add\n      swap2\n      swap1\n      0x00\n      mstore\n      keccak256(0x00, 0x20)\n      swap1\n    tag_32:\n      dup2\n      sload\n      dup2\n      mstore\n      swap1\n      0x01\n      add\n      swap1\n      0x20\n      add\n      dup1\n      dup4\n      gt\n      tag_32\n      jumpi\n      dup3\n      swap1\n      sub\n      0x1f\n      and\n      dup3\n      add\n      swap2\n    tag_30:\n      pop\n      pop\n      pop\n      pop\n      pop\n      dup2\n      jump\t// out\n        /* \"contracts/send_withdraw_money.sol\":285:389  function getContractBalance() public view returns (uint) {... */\n    tag_14:\n        /* \"contracts/send_withdraw_money.sol\":336:340  uint */\n      0x00\n        /* \"contracts/send_withdraw_money.sol\":360:381  address(this).balance */\n      selfbalance\n        /* \"contracts/send_withdraw_money.sol\":353:381  return address(this).balance */\n      swap1\n      pop\n        /* \"contracts/send_withdraw_money.sol\":285:389  function getContractBalance() public view returns (uint) {... */\n      swap1\n      jump\t// out\n        /* \"contracts/send_withdraw_money.sol\":397:563  function withdrawAll() public {... */\n    tag_19:\n        /* \"contracts/send_withdraw_money.sol\":438:456  address payable to */\n      0x00\n        /* \"contracts/send_withdraw_money.sol\":467:477  msg.sender */\n      caller\n        /* \"contracts/send_withdraw_money.sol\":438:478  address payable to = payable(msg.sender) */\n      swap1\n      pop\n        /* \"contracts/send_withdraw_money.sol\":489:491  to */\n      dup1\n        /* \"contracts/send_withdraw_money.sol\":489:500  to.transfer */\n      0xffffffffffffffffffffffffffffffffffffffff\n      and\n        /* \"contracts/send_withdraw_money.sol\":489:522  to.transfer(getContractBalance()) */\n      0x08fc\n        /* \"contracts/send_withdraw_money.sol\":501:521  getContractBalance() */\n      tag_35\n        /* \"contracts/send_withdraw_money.sol\":501:519  getContractBalance */\n      tag_14\n        /* \"contracts/send_withdraw_money.sol\":501:521  getContractBalance() */\n      jump\t// in\n    tag_35:\n        /* \"contracts/send_withdraw_money.sol\":489:522  to.transfer(getContractBalance()) */\n      swap1\n      dup2\n      iszero\n      mul\n      swap1\n      mload(0x40)\n      0x00\n      mload(0x40)\n      dup1\n      dup4\n      sub\n      dup2\n      dup6\n      dup9\n      dup9\n      call\n      swap4\n      pop\n      pop\n      pop\n      pop\n      iszero\n      dup1\n      iszero\n      tag_37\n      jumpi\n      returndatasize\n      0x00\n      dup1\n      returndatacopy\n      revert(0x00, returndatasize)\n    tag_37:\n      pop\n        /* \"contracts/send_withdraw_money.sol\":533:555  status = \"withdrawAll\" */\n      mload(0x40)\n      dup1\n      0x40\n      add\n      0x40\n      mstore\n      dup1\n      0x0b\n      dup2\n      mstore\n      0x20\n      add\n      0x7769746864726177416c6c000000000000000000000000000000000000000000\n      dup2\n      mstore\n      pop\n        /* \"contracts/send_withdraw_money.sol\":533:539  status */\n      0x00\n        /* \"contracts/send_withdraw_money.sol\":533:555  status = \"withdrawAll\" */\n      swap1\n      dup2\n      tag_38\n      swap2\n      swap1\n      tag_39\n      jump\t// in\n    tag_38:\n      pop\n        /* \"contracts/send_withdraw_money.sol\":427:563  {... */\n      pop\n        /* \"contracts/send_withdraw_money.sol\":397:563  function withdrawAll() public {... */\n      jump\t// out\n        /* \"contracts/send_withdraw_money.sol\":571:716  function withdrawToAddress(address payable to) public {... */\n    tag_24:\n        /* \"contracts/send_withdraw_money.sol\":636:638  to */\n      dup1\n        /* \"contracts/send_withdraw_money.sol\":636:647  to.transfer */\n      0xffffffffffffffffffffffffffffffffffffffff\n      and\n        /* \"contracts/send_withdraw_money.sol\":636:669  to.transfer(getContractBalance()) */\n      0x08fc\n        /* \"contracts/send_withdraw_money.sol\":648:668  getContractBalance() */\n      tag_41\n        /* \"contracts/send_withdraw_money.sol\":648:666  getContractBalance */\n      tag_14\n        /* \"contracts/send_withdraw_money.sol\":648:668  getContractBalance() */\n      jump\t// in\n    tag_41:\n        /* \"contracts/send_withdraw_money.sol\":636:669  to.transfer(getContractBalance()) */\n      swap1\n      dup2\n      iszero\n      mul\n      swap1\n      mload(0x40)\n      0x00\n      mload(0x40)\n      dup1\n      dup4\n      sub\n      dup2\n      dup6\n      dup9\n      dup9\n      call\n      swap4\n      pop\n      pop\n      pop\n      pop\n      iszero\n      dup1\n      iszero\n      tag_43\n      jumpi\n      returndatasize\n      0x00\n      dup1\n      returndatacopy\n      revert(0x00, returndatasize)\n    tag_43:\n      pop\n        /* \"contracts/send_withdraw_money.sol\":680:708  status = \"withdrawToAddress\" */\n      mload(0x40)\n      dup1\n      0x40\n      add\n      0x40\n      mstore\n      dup1\n      0x11\n      dup2\n      mstore\n      0x20\n      add\n      0x7769746864726177546f41646472657373000000000000000000000000000000\n      dup2\n      mstore\n      pop\n        /* \"contracts/send_withdraw_money.sol\":680:686  status */\n      0x00\n        /* \"contracts/send_withdraw_money.sol\":680:708  status = \"withdrawToAddress\" */\n      swap1\n      dup2\n      tag_44\n      swap2\n      swap1\n      tag_39\n      jump\t// in\n    tag_44:\n      pop\n        /* \"contracts/send_withdraw_money.sol\":571:716  function withdrawToAddress(address payable to) public {... */\n      pop\n      jump\t// out\n        /* \"contracts/send_withdraw_money.sol\":206:277  function deposit() public payable {... */\n    tag_26:\n        /* \"contracts/send_withdraw_money.sol\":251:269  status = \"deposit\" */\n      mload(0x40)\n      dup1\n      0x40\n      add\n      0x40\n      mstore\n      dup1\n      0x07\n      dup2\n      mstore\n      0x20\n      add\n      0x6465706f73697400000000000000000000000000000000000000000000000000\n      dup2\n      mstore\n      pop\n        /* \"contracts/send_withdraw_money.sol\":251:257  status */\n      0x00\n        /* \"contracts/send_withdraw_money.sol\":251:269  status = \"deposit\" */\n      swap1\n      dup2\n      tag_46\n      swap2\n      swap1\n      tag_39\n      jump\t// in\n    tag_46:\n      pop\n        /* \"contracts/send_withdraw_money.sol\":206:277  function deposit() public payable {... */\n      jump\t// out\n        /* \"#utility.yul\":7:106   */\n    tag_47:\n        /* \"#utility.yul\":59:65   */\n      0x00\n        /* \"#utility.yul\":93:98   */\n      dup2\n        /* \"#utility.yul\":87:99   */\n      mload\n        /* \"#utility.yul\":77:99   */\n      swap1\n      pop\n        /* \"#utility.yul\":7:106   */\n      swap2\n      swap1\n      pop\n      jump\t// out\n        /* \"#utility.yul\":112:281   */\n    tag_48:\n        /* \"#utility.yul\":196:207   */\n      0x00\n        /* \"#utility.yul\":230:236   */\n      dup3\n        /* \"#utility.yul\":225:228   */\n      dup3\n        /* \"#utility.yul\":218:237   */\n      mstore\n        /* \"#utility.yul\":270:274   */\n      0x20\n        /* \"#utility.yul\":265:268   */\n      dup3\n        /* \"#utility.yul\":261:275   */\n      add\n        /* \"#utility.yul\":246:275   */\n      swap1\n      pop\n        /* \"#utility.yul\":112:281   */\n      swap3\n      swap2\n      pop\n      pop\n      jump\t// out\n        /* \"#utility.yul\":287:426   */\n    tag_49:\n        /* \"#utility.yul\":376:382   */\n      dup3\n        /* \"#utility.yul\":371:374   */\n      dup2\n        /* \"#utility.yul\":366:369   */\n      dup4\n        /* \"#utility.yul\":360:383   */\n      mcopy\n        /* \"#utility.yul\":417:418   */\n      0x00\n        /* \"#utility.yul\":408:414   */\n      dup4\n        /* \"#utility.yul\":403:406   */\n      dup4\n        /* \"#utility.yul\":399:415   */\n      add\n        /* \"#utility.yul\":392:419   */\n      mstore\n        /* \"#utility.yul\":287:426   */\n      pop\n      pop\n      pop\n      jump\t// out\n        /* \"#utility.yul\":432:534   */\n    tag_50:\n        /* \"#utility.yul\":473:479   */\n      0x00\n        /* \"#utility.yul\":524:526   */\n      0x1f\n        /* \"#utility.yul\":520:527   */\n      not\n        /* \"#utility.yul\":515:517   */\n      0x1f\n        /* \"#utility.yul\":508:513   */\n      dup4\n        /* \"#utility.yul\":504:518   */\n      add\n        /* \"#utility.yul\":500:528   */\n      and\n        /* \"#utility.yul\":490:528   */\n      swap1\n      pop\n        /* \"#utility.yul\":432:534   */\n      swap2\n      swap1\n      pop\n      jump\t// out\n        /* \"#utility.yul\":540:917   */\n    tag_51:\n        /* \"#utility.yul\":628:631   */\n      0x00\n        /* \"#utility.yul\":656:695   */\n      tag_84\n        /* \"#utility.yul\":689:694   */\n      dup3\n        /* \"#utility.yul\":656:695   */\n      tag_47\n      jump\t// in\n    tag_84:\n        /* \"#utility.yul\":711:782   */\n      tag_85\n        /* \"#utility.yul\":775:781   */\n      dup2\n        /* \"#utility.yul\":770:773   */\n      dup6\n        /* \"#utility.yul\":711:782   */\n      tag_48\n      jump\t// in\n    tag_85:\n        /* \"#utility.yul\":704:782   */\n      swap4\n      pop\n        /* \"#utility.yul\":791:856   */\n      tag_86\n        /* \"#utility.yul\":849:855   */\n      dup2\n        /* \"#utility.yul\":844:847   */\n      dup6\n        /* \"#utility.yul\":837:841   */\n      0x20\n        /* \"#utility.yul\":830:835   */\n      dup7\n        /* \"#utility.yul\":826:842   */\n      add\n        /* \"#utility.yul\":791:856   */\n      tag_49\n      jump\t// in\n    tag_86:\n        /* \"#utility.yul\":881:910   */\n      tag_87\n        /* \"#utility.yul\":903:909   */\n      dup2\n        /* \"#utility.yul\":881:910   */\n      tag_50\n      jump\t// in\n    tag_87:\n        /* \"#utility.yul\":876:879   */\n      dup5\n        /* \"#utility.yul\":872:911   */\n      add\n        /* \"#utility.yul\":865:911   */\n      swap2\n      pop\n        /* \"#utility.yul\":632:917   */\n      pop\n        /* \"#utility.yul\":540:917   */\n      swap3\n      swap2\n      pop\n      pop\n      jump\t// out\n        /* \"#utility.yul\":923:1236   */\n    tag_11:\n        /* \"#utility.yul\":1036:1040   */\n      0x00\n        /* \"#utility.yul\":1074:1076   */\n      0x20\n        /* \"#utility.yul\":1063:1072   */\n      dup3\n        /* \"#utility.yul\":1059:1077   */\n      add\n        /* \"#utility.yul\":1051:1077   */\n      swap1\n      pop\n        /* \"#utility.yul\":1123:1132   */\n      dup2\n        /* \"#utility.yul\":1117:1121   */\n      dup2\n        /* \"#utility.yul\":1113:1133   */\n      sub\n        /* \"#utility.yul\":1109:1110   */\n      0x00\n        /* \"#utility.yul\":1098:1107   */\n      dup4\n        /* \"#utility.yul\":1094:1111   */\n      add\n        /* \"#utility.yul\":1087:1134   */\n      mstore\n        /* \"#utility.yul\":1151:1229   */\n      tag_89\n        /* \"#utility.yul\":1224:1228   */\n      dup2\n        /* \"#utility.yul\":1215:1221   */\n      dup5\n        /* \"#utility.yul\":1151:1229   */\n      tag_51\n      jump\t// in\n    tag_89:\n        /* \"#utility.yul\":1143:1229   */\n      swap1\n      pop\n        /* \"#utility.yul\":923:1236   */\n      swap3\n      swap2\n      pop\n      pop\n      jump\t// out\n        /* \"#utility.yul\":1242:1319   */\n    tag_52:\n        /* \"#utility.yul\":1279:1286   */\n      0x00\n        /* \"#utility.yul\":1308:1313   */\n      dup2\n        /* \"#utility.yul\":1297:1313   */\n      swap1\n      pop\n        /* \"#utility.yul\":1242:1319   */\n      swap2\n      swap1\n      pop\n      jump\t// out\n        /* \"#utility.yul\":1325:1443   */\n    tag_53:\n        /* \"#utility.yul\":1412:1436   */\n      tag_92\n        /* \"#utility.yul\":1430:1435   */\n      dup2\n        /* \"#utility.yul\":1412:1436   */\n      tag_52\n      jump\t// in\n    tag_92:\n        /* \"#utility.yul\":1407:1410   */\n      dup3\n        /* \"#utility.yul\":1400:1437   */\n      mstore\n        /* \"#utility.yul\":1325:1443   */\n      pop\n      pop\n      jump\t// out\n        /* \"#utility.yul\":1449:1671   */\n    tag_16:\n        /* \"#utility.yul\":1542:1546   */\n      0x00\n        /* \"#utility.yul\":1580:1582   */\n      0x20\n        /* \"#utility.yul\":1569:1578   */\n      dup3\n        /* \"#utility.yul\":1565:1583   */\n      add\n        /* \"#utility.yul\":1557:1583   */\n      swap1\n      pop\n        /* \"#utility.yul\":1593:1664   */\n      tag_94\n        /* \"#utility.yul\":1661:1662   */\n      0x00\n        /* \"#utility.yul\":1650:1659   */\n      dup4\n        /* \"#utility.yul\":1646:1663   */\n      add\n        /* \"#utility.yul\":1637:1643   */\n      dup5\n        /* \"#utility.yul\":1593:1664   */\n      tag_53\n      jump\t// in\n    tag_94:\n        /* \"#utility.yul\":1449:1671   */\n      swap3\n      swap2\n      pop\n      pop\n      jump\t// out\n        /* \"#utility.yul\":1758:1875   */\n    tag_55:\n        /* \"#utility.yul\":1867:1868   */\n      0x00\n        /* \"#utility.yul\":1864:1865   */\n      dup1\n        /* \"#utility.yul\":1857:1869   */\n      revert\n        /* \"#utility.yul\":2004:2130   */\n    tag_57:\n        /* \"#utility.yul\":2041:2048   */\n      0x00\n        /* \"#utility.yul\":2081:2123   */\n      0xffffffffffffffffffffffffffffffffffffffff\n        /* \"#utility.yul\":2074:2079   */\n      dup3\n        /* \"#utility.yul\":2070:2124   */\n      and\n        /* \"#utility.yul\":2059:2124   */\n      swap1\n      pop\n        /* \"#utility.yul\":2004:2130   */\n      swap2\n      swap1\n      pop\n      jump\t// out\n        /* \"#utility.yul\":2136:2240   */\n    tag_58:\n        /* \"#utility.yul\":2181:2188   */\n      0x00\n        /* \"#utility.yul\":2210:2234   */\n      tag_100\n        /* \"#utility.yul\":2228:2233   */\n      dup3\n        /* \"#utility.yul\":2210:2234   */\n      tag_57\n      jump\t// in\n    tag_100:\n        /* \"#utility.yul\":2199:2234   */\n      swap1\n      pop\n        /* \"#utility.yul\":2136:2240   */\n      swap2\n      swap1\n      pop\n      jump\t// out\n        /* \"#utility.yul\":2246:2384   */\n    tag_59:\n        /* \"#utility.yul\":2327:2359   */\n      tag_102\n        /* \"#utility.yul\":2353:2358   */\n      dup2\n        /* \"#utility.yul\":2327:2359   */\n      tag_58\n      jump\t// in\n    tag_102:\n        /* \"#utility.yul\":2320:2325   */\n      dup2\n        /* \"#utility.yul\":2317:2360   */\n      eq\n        /* \"#utility.yul\":2307:2378   */\n      tag_103\n      jumpi\n        /* \"#utility.yul\":2374:2375   */\n      0x00\n        /* \"#utility.yul\":2371:2372   */\n      dup1\n        /* \"#utility.yul\":2364:2376   */\n      revert\n        /* \"#utility.yul\":2307:2378   */\n    tag_103:\n        /* \"#utility.yul\":2246:2384   */\n      pop\n      jump\t// out\n        /* \"#utility.yul\":2390:2545   */\n    tag_60:\n        /* \"#utility.yul\":2444:2449   */\n      0x00\n        /* \"#utility.yul\":2482:2488   */\n      dup2\n        /* \"#utility.yul\":2469:2489   */\n      calldataload\n        /* \"#utility.yul\":2460:2489   */\n      swap1\n      pop\n        /* \"#utility.yul\":2498:2539   */\n      tag_105\n        /* \"#utility.yul\":2533:2538   */\n      dup2\n        /* \"#utility.yul\":2498:2539   */\n      tag_59\n      jump\t// in\n    tag_105:\n        /* \"#utility.yul\":2390:2545   */\n      swap3\n      swap2\n      pop\n      pop\n      jump\t// out\n        /* \"#utility.yul\":2551:2896   */\n    tag_23:\n        /* \"#utility.yul\":2618:2624   */\n      0x00\n        /* \"#utility.yul\":2667:2669   */\n      0x20\n        /* \"#utility.yul\":2655:2664   */\n      dup3\n        /* \"#utility.yul\":2646:2653   */\n      dup5\n        /* \"#utility.yul\":2642:2665   */\n      sub\n        /* \"#utility.yul\":2638:2670   */\n      slt\n        /* \"#utility.yul\":2635:2754   */\n      iszero\n      tag_107\n      jumpi\n        /* \"#utility.yul\":2673:2752   */\n      tag_108\n      tag_55\n      jump\t// in\n    tag_108:\n        /* \"#utility.yul\":2635:2754   */\n    tag_107:\n        /* \"#utility.yul\":2793:2794   */\n      0x00\n        /* \"#utility.yul\":2818:2879   */\n      tag_109\n        /* \"#utility.yul\":2871:2878   */\n      dup5\n        /* \"#utility.yul\":2862:2868   */\n      dup3\n        /* \"#utility.yul\":2851:2860   */\n      dup6\n        /* \"#utility.yul\":2847:2869   */\n      add\n        /* \"#utility.yul\":2818:2879   */\n      tag_60\n      jump\t// in\n    tag_109:\n        /* \"#utility.yul\":2808:2879   */\n      swap2\n      pop\n        /* \"#utility.yul\":2764:2889   */\n      pop\n        /* \"#utility.yul\":2551:2896   */\n      swap3\n      swap2\n      pop\n      pop\n      jump\t// out\n        /* \"#utility.yul\":2902:3082   */\n    tag_61:\n        /* \"#utility.yul\":2950:3027   */\n      0x4e487b7100000000000000000000000000000000000000000000000000000000\n        /* \"#utility.yul\":2947:2948   */\n      0x00\n        /* \"#utility.yul\":2940:3028   */\n      mstore\n        /* \"#utility.yul\":3047:3051   */\n      0x22\n        /* \"#utility.yul\":3044:3045   */\n      0x04\n        /* \"#utility.yul\":3037:3052   */\n      mstore\n        /* \"#utility.yul\":3071:3075   */\n      0x24\n        /* \"#utility.yul\":3068:3069   */\n      0x00\n        /* \"#utility.yul\":3061:3076   */\n      revert\n        /* \"#utility.yul\":3088:3408   */\n    tag_28:\n        /* \"#utility.yul\":3132:3138   */\n      0x00\n        /* \"#utility.yul\":3169:3170   */\n      0x02\n        /* \"#utility.yul\":3163:3167   */\n      dup3\n        /* \"#utility.yul\":3159:3171   */\n      div\n        /* \"#utility.yul\":3149:3171   */\n      swap1\n      pop\n        /* \"#utility.yul\":3216:3217   */\n      0x01\n        /* \"#utility.yul\":3210:3214   */\n      dup3\n        /* \"#utility.yul\":3206:3218   */\n      and\n        /* \"#utility.yul\":3237:3255   */\n      dup1\n        /* \"#utility.yul\":3227:3308   */\n      tag_112\n      jumpi\n        /* \"#utility.yul\":3293:3297   */\n      0x7f\n        /* \"#utility.yul\":3285:3291   */\n      dup3\n        /* \"#utility.yul\":3281:3298   */\n      and\n        /* \"#utility.yul\":3271:3298   */\n      swap2\n      pop\n        /* \"#utility.yul\":3227:3308   */\n    tag_112:\n        /* \"#utility.yul\":3355:3357   */\n      0x20\n        /* \"#utility.yul\":3347:3353   */\n      dup3\n        /* \"#utility.yul\":3344:3358   */\n      lt\n        /* \"#utility.yul\":3324:3342   */\n      dup2\n        /* \"#utility.yul\":3321:3359   */\n      sub\n        /* \"#utility.yul\":3318:3402   */\n      tag_113\n      jumpi\n        /* \"#utility.yul\":3374:3392   */\n      tag_114\n      tag_61\n      jump\t// in\n    tag_114:\n        /* \"#utility.yul\":3318:3402   */\n    tag_113:\n        /* \"#utility.yul\":3139:3408   */\n      pop\n        /* \"#utility.yul\":3088:3408   */\n      swap2\n      swap1\n      pop\n      jump\t// out\n        /* \"#utility.yul\":3414:3594   */\n    tag_62:\n        /* \"#utility.yul\":3462:3539   */\n      0x4e487b7100000000000000000000000000000000000000000000000000000000\n        /* \"#utility.yul\":3459:3460   */\n      0x00\n        /* \"#utility.yul\":3452:3540   */\n      mstore\n        /* \"#utility.yul\":3559:3563   */\n      0x41\n        /* \"#utility.yul\":3556:3557   */\n      0x04\n        /* \"#utility.yul\":3549:3564   */\n      mstore\n        /* \"#utility.yul\":3583:3587   */\n      0x24\n        /* \"#utility.yul\":3580:3581   */\n      0x00\n        /* \"#utility.yul\":3573:3588   */\n      revert\n        /* \"#utility.yul\":3600:3741   */\n    tag_63:\n        /* \"#utility.yul\":3649:3653   */\n      0x00\n        /* \"#utility.yul\":3672:3675   */\n      dup2\n        /* \"#utility.yul\":3664:3675   */\n      swap1\n      pop\n        /* \"#utility.yul\":3695:3698   */\n      dup2\n        /* \"#utility.yul\":3692:3693   */\n      0x00\n        /* \"#utility.yul\":3685:3699   */\n      mstore\n        /* \"#utility.yul\":3729:3733   */\n      0x20\n        /* \"#utility.yul\":3726:3727   */\n      0x00\n        /* \"#utility.yul\":3716:3734   */\n      keccak256\n        /* \"#utility.yul\":3708:3734   */\n      swap1\n      pop\n        /* \"#utility.yul\":3600:3741   */\n      swap2\n      swap1\n      pop\n      jump\t// out\n        /* \"#utility.yul\":3747:3840   */\n    tag_64:\n        /* \"#utility.yul\":3784:3790   */\n      0x00\n        /* \"#utility.yul\":3831:3833   */\n      0x20\n        /* \"#utility.yul\":3826:3828   */\n      0x1f\n        /* \"#utility.yul\":3819:3824   */\n      dup4\n        /* \"#utility.yul\":3815:3829   */\n      add\n        /* \"#utility.yul\":3811:3834   */\n      div\n        /* \"#utility.yul\":3801:3834   */\n      swap1\n      pop\n        /* \"#utility.yul\":3747:3840   */\n      swap2\n      swap1\n      pop\n      jump\t// out\n        /* \"#utility.yul\":3846:3953   */\n    tag_65:\n        /* \"#utility.yul\":3890:3898   */\n      0x00\n        /* \"#utility.yul\":3940:3945   */\n      dup3\n        /* \"#utility.yul\":3934:3938   */\n      dup3\n        /* \"#utility.yul\":3930:3946   */\n      shl\n        /* \"#utility.yul\":3909:3946   */\n      swap1\n      pop\n        /* \"#utility.yul\":3846:3953   */\n      swap3\n      swap2\n      pop\n      pop\n      jump\t// out\n        /* \"#utility.yul\":3959:4352   */\n    tag_66:\n        /* \"#utility.yul\":4028:4034   */\n      0x00\n        /* \"#utility.yul\":4078:4079   */\n      0x08\n        /* \"#utility.yul\":4066:4076   */\n      dup4\n        /* \"#utility.yul\":4062:4080   */\n      mul\n        /* \"#utility.yul\":4101:4198   */\n      tag_120\n        /* \"#utility.yul\":4131:4197   */\n      0xffffffffffffffffffffffffffffffffffffffffffffffffffffffffffffffff\n        /* \"#utility.yul\":4120:4129   */\n      dup3\n        /* \"#utility.yul\":4101:4198   */\n      tag_65\n      jump\t// in\n    tag_120:\n        /* \"#utility.yul\":4219:4258   */\n      tag_121\n        /* \"#utility.yul\":4249:4257   */\n      dup7\n        /* \"#utility.yul\":4238:4247   */\n      dup4\n        /* \"#utility.yul\":4219:4258   */\n      tag_65\n      jump\t// in\n    tag_121:\n        /* \"#utility.yul\":4207:4258   */\n      swap6\n      pop\n        /* \"#utility.yul\":4291:4295   */\n      dup1\n        /* \"#utility.yul\":4287:4296   */\n      not\n        /* \"#utility.yul\":4280:4285   */\n      dup5\n        /* \"#utility.yul\":4276:4297   */\n      and\n        /* \"#utility.yul\":4267:4297   */\n      swap4\n      pop\n        /* \"#utility.yul\":4340:4344   */\n      dup1\n        /* \"#utility.yul\":4330:4338   */\n      dup7\n        /* \"#utility.yul\":4326:4345   */\n      and\n        /* \"#utility.yul\":4319:4324   */\n      dup5\n        /* \"#utility.yul\":4316:4346   */\n      or\n        /* \"#utility.yul\":4306:4346   */\n      swap3\n      pop\n        /* \"#utility.yul\":4035:4352   */\n      pop\n      pop\n        /* \"#utility.yul\":3959:4352   */\n      swap4\n      swap3\n      pop\n      pop\n      pop\n      jump\t// out\n        /* \"#utility.yul\":4358:4418   */\n    tag_67:\n        /* \"#utility.yul\":4386:4389   */\n      0x00\n        /* \"#utility.yul\":4407:4412   */\n      dup2\n        /* \"#utility.yul\":4400:4412   */\n      swap1\n      pop\n        /* \"#utility.yul\":4358:4418   */\n      swap2\n      swap1\n      pop\n      jump\t// out\n        /* \"#utility.yul\":4424:4566   */\n    tag_68:\n        /* \"#utility.yul\":4474:4483   */\n      0x00\n        /* \"#utility.yul\":4507:4560   */\n      tag_124\n        /* \"#utility.yul\":4525:4559   */\n      tag_125\n        /* \"#utility.yul\":4534:4558   */\n      tag_126\n        /* \"#utility.yul\":4552:4557   */\n      dup5\n        /* \"#utility.yul\":4534:4558   */\n      tag_52\n      jump\t// in\n    tag_126:\n        /* \"#utility.yul\":4525:4559   */\n      tag_67\n      jump\t// in\n    tag_125:\n        /* \"#utility.yul\":4507:4560   */\n      tag_52\n      jump\t// in\n    tag_124:\n        /* \"#utility.yul\":4494:4560   */\n      swap1\n      pop\n        /* \"#utility.yul\":4424:4566   */\n      swap2\n      swap1\n      pop\n      jump\t// out\n        /* \"#utility.yul\":4572:4647   */\n    tag_69:\n        /* \"#utility.yul\":4615:4618   */\n      0x00\n        /* \"#utility.yul\":4636:4641   */\n      dup2\n        /* \"#utility.yul\":4629:4641   */\n      swap1\n      pop\n        /* \"#utility.yul\":4572:4647   */\n      swap2\n      swap1\n      pop\n      jump\t// out\n        /* \"#utility.yul\":4653:4922   */\n    tag_70:\n        /* \"#utility.yul\":4763:4802   */\n      tag_129\n        /* \"#utility.yul\":4794:4801   */\n      dup4\n        /* \"#utility.yul\":4763:4802   */\n      tag_68\n      jump\t// in\n    tag_129:\n        /* \"#utility.yul\":4824:4915   */\n      tag_130\n        /* \"#utility.yul\":4873:4914   */\n      tag_131\n        /* \"#utility.yul\":4897:4913   */\n      dup3\n        /* \"#utility.yul\":4873:4914   */\n      tag_69\n      jump\t// in\n    tag_131:\n        /* \"#utility.yul\":4865:4871   */\n      dup5\n        /* \"#utility.yul\":4858:4862   */\n      dup5\n        /* \"#utility.yul\":4852:4863   */\n      sload\n        /* \"#utility.yul\":4824:4915   */\n      tag_66\n      jump\t// in\n    tag_130:\n        /* \"#utility.yul\":4818:4822   */\n      dup3\n        /* \"#utility.yul\":4811:4916   */\n      sstore\n        /* \"#utility.yul\":4729:4922   */\n      pop\n        /* \"#utility.yul\":4653:4922   */\n      pop\n      pop\n      pop\n      jump\t// out\n        /* \"#utility.yul\":4928:5001   */\n    tag_71:\n        /* \"#utility.yul\":4973:4976   */\n      0x00\n        /* \"#utility.yul\":4928:5001   */\n      swap1\n      jump\t// out\n        /* \"#utility.yul\":5007:5196   */\n    tag_72:\n        /* \"#utility.yul\":5084:5116   */\n      tag_134\n      tag_71\n      jump\t// in\n    tag_134:\n        /* \"#utility.yul\":5125:5190   */\n      tag_135\n        /* \"#utility.yul\":5183:5189   */\n      dup2\n        /* \"#utility.yul\":5175:5181   */\n      dup5\n        /* \"#utility.yul\":5169:5173   */\n      dup5\n        /* \"#utility.yul\":5125:5190   */\n      tag_70\n      jump\t// in\n    tag_135:\n        /* \"#utility.yul\":5060:5196   */\n      pop\n        /* \"#utility.yul\":5007:5196   */\n      pop\n      pop\n      jump\t// out\n        /* \"#utility.yul\":5202:5388   */\n    tag_73:\n        /* \"#utility.yul\":5262:5382   */\n    tag_137:\n        /* \"#utility.yul\":5279:5282   */\n      dup2\n        /* \"#utility.yul\":5272:5277   */\n      dup2\n        /* \"#utility.yul\":5269:5283   */\n      lt\n        /* \"#utility.yul\":5262:5382   */\n      iszero\n      tag_139\n      jumpi\n        /* \"#utility.yul\":5333:5372   */\n      tag_140\n        /* \"#utility.yul\":5370:5371   */\n      0x00\n        /* \"#utility.yul\":5363:5368   */\n      dup3\n        /* \"#utility.yul\":5333:5372   */\n      tag_72\n      jump\t// in\n    tag_140:\n        /* \"#utility.yul\":5306:5307   */\n      0x01\n        /* \"#utility.yul\":5299:5304   */\n      dup2\n        /* \"#utility.yul\":5295:5308   */\n      add\n        /* \"#utility.yul\":5286:5308   */\n      swap1\n      pop\n        /* \"#utility.yul\":5262:5382   */\n      jump(tag_137)\n    tag_139:\n        /* \"#utility.yul\":5202:5388   */\n      pop\n      pop\n      jump\t// out\n        /* \"#utility.yul\":5394:5937   */\n    tag_74:\n        /* \"#utility.yul\":5495:5497   */\n      0x1f\n        /* \"#utility.yul\":5490:5493   */\n      dup3\n        /* \"#utility.yul\":5487:5498   */\n      gt\n        /* \"#utility.yul\":5484:5930   */\n      iszero\n      tag_142\n      jumpi\n        /* \"#utility.yul\":5529:5567   */\n      tag_143\n        /* \"#utility.yul\":5561:5566   */\n      dup2\n        /* \"#utility.yul\":5529:5567   */\n      tag_63\n      jump\t// in\n    tag_143:\n        /* \"#utility.yul\":5613:5642   */\n      tag_144\n        /* \"#utility.yul\":5631:5641   */\n      dup5\n        /* \"#utility.yul\":5613:5642   */\n      tag_64\n      jump\t// in\n    tag_144:\n        /* \"#utility.yul\":5603:5611   */\n      dup2\n        /* \"#utility.yul\":5599:5643   */\n      add\n        /* \"#utility.yul\":5796:5798   */\n      0x20\n        /* \"#utility.yul\":5784:5794   */\n      dup6\n        /* \"#utility.yul\":5781:5799   */\n      lt\n        /* \"#utility.yul\":5778:5827   */\n      iszero\n      tag_145\n      jumpi\n        /* \"#utility.yul\":5817:5825   */\n      dup2\n        /* \"#utility.yul\":5802:5825   */\n      swap1\n      pop\n        /* \"#utility.yul\":5778:5827   */\n    tag_145:\n        /* \"#utility.yul\":5840:5920   */\n      tag_146\n        /* \"#utility.yul\":5896:5918   */\n      tag_147\n        /* \"#utility.yul\":5914:5917   */\n      dup6\n        /* \"#utility.yul\":5896:5918   */\n      tag_64\n      jump\t// in\n    tag_147:\n        /* \"#utility.yul\":5886:5894   */\n      dup4\n        /* \"#utility.yul\":5882:5919   */\n      add\n        /* \"#utility.yul\":5869:5880   */\n      dup3\n        /* \"#utility.yul\":5840:5920   */\n      tag_73\n      jump\t// in\n    tag_146:\n        /* \"#utility.yul\":5499:5930   */\n      pop\n      pop\n        /* \"#utility.yul\":5484:5930   */\n    tag_142:\n        /* \"#utility.yul\":5394:5937   */\n      pop\n      pop\n      pop\n      jump\t// out\n        /* \"#utility.yul\":5943:6060   */\n    tag_75:\n        /* \"#utility.yul\":5997:6005   */\n      0x00\n        /* \"#utility.yul\":6047:6052   */\n      dup3\n        /* \"#utility.yul\":6041:6045   */\n      dup3\n        /* \"#utility.yul\":6037:6053   */\n      shr\n        /* \"#utility.yul\":6016:6053   */\n      swap1\n      pop\n        /* \"#utility.yul\":5943:6060   */\n      swap3\n      swap2\n      pop\n      pop\n      jump\t// out\n        /* \"#utility.yul\":6066:6235   */\n    tag_76:\n        /* \"#utility.yul\":6110:6116   */\n      0x00\n        /* \"#utility.yul\":6143:6194   */\n      tag_150\n        /* \"#utility.yul\":6191:6192   */\n      0x00\n        /* \"#utility.yul\":6187:6193   */\n      not\n        /* \"#utility.yul\":6179:6184   */\n      dup5\n        /* \"#utility.yul\":6176:6177   */\n      0x08\n        /* \"#utility.yul\":6172:6185   */\n      mul\n        /* \"#utility.yul\":6143:6194   */\n      tag_75\n      jump\t// in\n    tag_150:\n        /* \"#utility.yul\":6139:6195   */\n      not\n        /* \"#utility.yul\":6224:6228   */\n      dup1\n        /* \"#utility.yul\":6218:6222   */\n      dup4\n        /* \"#utility.yul\":6214:6229   */\n      and\n        /* \"#utility.yul\":6204:6229   */\n      swap2\n      pop\n        /* \"#utility.yul\":6117:6235   */\n      pop\n        /* \"#utility.yul\":6066:6235   */\n      swap3\n      swap2\n      pop\n      pop\n      jump\t// out\n        /* \"#utility.yul\":6240:6535   */\n    tag_77:\n        /* \"#utility.yul\":6316:6320   */\n      0x00\n        /* \"#utility.yul\":6462:6491   */\n      tag_152\n        /* \"#utility.yul\":6487:6490   */\n      dup4\n        /* \"#utility.yul\":6481:6485   */\n      dup4\n        /* \"#utility.yul\":6462:6491   */\n      tag_76\n      jump\t// in\n    tag_152:\n        /* \"#utility.yul\":6454:6491   */\n      swap2\n      pop\n        /* \"#utility.yul\":6524:6527   */\n      dup3\n        /* \"#utility.yul\":6521:6522   */\n      0x02\n        /* \"#utility.yul\":6517:6528   */\n      mul\n        /* \"#utility.yul\":6511:6515   */\n      dup3\n        /* \"#utility.yul\":6508:6529   */\n      or\n        /* \"#utility.yul\":6500:6529   */\n      swap1\n      pop\n        /* \"#utility.yul\":6240:6535   */\n      swap3\n      swap2\n      pop\n      pop\n      jump\t// out\n        /* \"#utility.yul\":6540:7935   */\n    tag_39:\n        /* \"#utility.yul\":6657:6694   */\n      tag_154\n        /* \"#utility.yul\":6690:6693   */\n      dup3\n        /* \"#utility.yul\":6657:6694   */\n      tag_47\n      jump\t// in\n    tag_154:\n        /* \"#utility.yul\":6759:6777   */\n      0xffffffffffffffff\n        /* \"#utility.yul\":6751:6757   */\n      dup2\n        /* \"#utility.yul\":6748:6778   */\n      gt\n        /* \"#utility.yul\":6745:6801   */\n      iszero\n      tag_155\n      jumpi\n        /* \"#utility.yul\":6781:6799   */\n      tag_156\n      tag_62\n      jump\t// in\n    tag_156:\n        /* \"#utility.yul\":6745:6801   */\n    tag_155:\n        /* \"#utility.yul\":6825:6863   */\n      tag_157\n        /* \"#utility.yul\":6857:6861   */\n      dup3\n        /* \"#utility.yul\":6851:6862   */\n      sload\n        /* \"#utility.yul\":6825:6863   */\n      tag_28\n      jump\t// in\n    tag_157:\n        /* \"#utility.yul\":6910:6977   */\n      tag_158\n        /* \"#utility.yul\":6970:6976   */\n      dup3\n        /* \"#utility.yul\":6962:6968   */\n      dup3\n        /* \"#utility.yul\":6956:6960   */\n      dup6\n        /* \"#utility.yul\":6910:6977   */\n      tag_74\n      jump\t// in\n    tag_158:\n        /* \"#utility.yul\":7004:7005   */\n      0x00\n        /* \"#utility.yul\":7028:7032   */\n      0x20\n        /* \"#utility.yul\":7015:7032   */\n      swap1\n      pop\n        /* \"#utility.yul\":7060:7062   */\n      0x1f\n        /* \"#utility.yul\":7052:7058   */\n      dup4\n        /* \"#utility.yul\":7049:7063   */\n      gt\n        /* \"#utility.yul\":7077:7078   */\n      0x01\n        /* \"#utility.yul\":7072:7690   */\n      dup2\n      eq\n      tag_160\n      jumpi\n        /* \"#utility.yul\":7734:7735   */\n      0x00\n        /* \"#utility.yul\":7751:7757   */\n      dup5\n        /* \"#utility.yul\":7748:7825   */\n      iszero\n      tag_161\n      jumpi\n        /* \"#utility.yul\":7800:7809   */\n      dup3\n        /* \"#utility.yul\":7795:7798   */\n      dup8\n        /* \"#utility.yul\":7791:7810   */\n      add\n        /* \"#utility.yul\":7785:7811   */\n      mload\n        /* \"#utility.yul\":7776:7811   */\n      swap1\n      pop\n        /* \"#utility.yul\":7748:7825   */\n    tag_161:\n        /* \"#utility.yul\":7851:7918   */\n      tag_162\n        /* \"#utility.yul\":7911:7917   */\n      dup6\n        /* \"#utility.yul\":7904:7909   */\n      dup3\n        /* \"#utility.yul\":7851:7918   */\n      tag_77\n      jump\t// in\n    tag_162:\n        /* \"#utility.yul\":7845:7849   */\n      dup7\n        /* \"#utility.yul\":7838:7919   */\n      sstore\n        /* \"#utility.yul\":7707:7929   */\n      pop\n        /* \"#utility.yul\":7042:7929   */\n      jump(tag_159)\n        /* \"#utility.yul\":7072:7690   */\n    tag_160:\n        /* \"#utility.yul\":7124:7128   */\n      0x1f\n        /* \"#utility.yul\":7120:7129   */\n      not\n        /* \"#utility.yul\":7112:7118   */\n      dup5\n        /* \"#utility.yul\":7108:7130   */\n      and\n        /* \"#utility.yul\":7158:7195   */\n      tag_163\n        /* \"#utility.yul\":7190:7194   */\n      dup7\n        /* \"#utility.yul\":7158:7195   */\n      tag_63\n      jump\t// in\n    tag_163:\n        /* \"#utility.yul\":7217:7218   */\n      0x00\n        /* \"#utility.yul\":7231:7439   */\n    tag_164:\n        /* \"#utility.yul\":7245:7252   */\n      dup3\n        /* \"#utility.yul\":7242:7243   */\n      dup2\n        /* \"#utility.yul\":7239:7253   */\n      lt\n        /* \"#utility.yul\":7231:7439   */\n      iszero\n      tag_166\n      jumpi\n        /* \"#utility.yul\":7324:7333   */\n      dup5\n        /* \"#utility.yul\":7319:7322   */\n      dup10\n        /* \"#utility.yul\":7315:7334   */\n      add\n        /* \"#utility.yul\":7309:7335   */\n      mload\n        /* \"#utility.yul\":7301:7307   */\n      dup3\n        /* \"#utility.yul\":7294:7336   */\n      sstore\n        /* \"#utility.yul\":7375:7376   */\n      0x01\n        /* \"#utility.yul\":7367:7373   */\n      dup3\n        /* \"#utility.yul\":7363:7377   */\n      add\n        /* \"#utility.yul\":7353:7377   */\n      swap2\n      pop\n        /* \"#utility.yul\":7422:7424   */\n      0x20\n        /* \"#utility.yul\":7411:7420   */\n      dup6\n        /* \"#utility.yul\":7407:7425   */\n      add\n        /* \"#utility.yul\":7394:7425   */\n      swap5\n      pop\n        /* \"#utility.yul\":7268:7272   */\n      0x20\n        /* \"#utility.yul\":7265:7266   */\n      dup2\n        /* \"#utility.yul\":7261:7273   */\n      add\n        /* \"#utility.yul\":7256:7273   */\n      swap1\n      pop\n        /* \"#utility.yul\":7231:7439   */\n      jump(tag_164)\n    tag_166:\n        /* \"#utility.yul\":7467:7473   */\n      dup7\n        /* \"#utility.yul\":7458:7465   */\n      dup4\n        /* \"#utility.yul\":7455:7474   */\n      lt\n        /* \"#utility.yul\":7452:7631   */\n      iszero\n      tag_167\n      jumpi\n        /* \"#utility.yul\":7525:7534   */\n      dup5\n        /* \"#utility.yul\":7520:7523   */\n      dup10\n        /* \"#utility.yul\":7516:7535   */\n      add\n        /* \"#utility.yul\":7510:7536   */\n      mload\n        /* \"#utility.yul\":7568:7616   */\n      tag_168\n        /* \"#utility.yul\":7610:7614   */\n      0x1f\n        /* \"#utility.yul\":7602:7608   */\n      dup10\n        /* \"#utility.yul\":7598:7615   */\n      and\n        /* \"#utility.yul\":7587:7596   */\n      dup3\n        /* \"#utility.yul\":7568:7616   */\n      tag_76\n      jump\t// in\n    tag_168:\n        /* \"#utility.yul\":7560:7566   */\n      dup4\n        /* \"#utility.yul\":7553:7617   */\n      sstore\n        /* \"#utility.yul\":7475:7631   */\n      pop\n        /* \"#utility.yul\":7452:7631   */\n    tag_167:\n        /* \"#utility.yul\":7677:7678   */\n      0x01\n        /* \"#utility.yul\":7673:7674   */\n      0x02\n        /* \"#utility.yul\":7665:7671   */\n      dup9\n        /* \"#utility.yul\":7661:7675   */\n      mul\n        /* \"#utility.yul\":7657:7679   */\n      add\n        /* \"#utility.yul\":7651:7655   */\n      dup9\n        /* \"#utility.yul\":7644:7680   */\n      sstore\n        /* \"#utility.yul\":7079:7690   */\n      pop\n      pop\n      pop\n        /* \"#utility.yul\":7042:7929   */\n    tag_159:\n      pop\n        /* \"#utility.yul\":6632:7935   */\n      pop\n      pop\n      pop\n        /* \"#utility.yul\":6540:7935   */\n      pop\n      pop\n      jump\t// out\n\n    auxdata: 0xa2646970667358221220c49ed136e885b778cc2e3fc8d5dceafbb9778371a07d87745a3b700add0471a464736f6c634300081a0033\n}\n",
				"bytecode": {
					"linkReferences": {},
					"object": "60806040526040518060400160405280601581526020017f726561647920666f72207472616e73616374696f6e00000000000000000000008152505f90816100479190610287565b50610356565b5f81519050919050565b7f4e487b71000000000000000000000000000000000000000000000000000000005f52604160045260245ffd5b7f4e487b71000000000000000000000000000000000000000000000000000000005f52602260045260245ffd5b5f60028204905060018216806100c857607f821691505b6020821081036100db576100da610084565b5b50919050565b5f819050815f5260205f209050919050565b5f6020601f8301049050919050565b5f82821b905092915050565b5f6008830261013d7fffffffffffffffffffffffffffffffffffffffffffffffffffffffffffffffff82610102565b6101478683610102565b95508019841693508086168417925050509392505050565b5f819050919050565b5f819050919050565b5f61018b6101866101818461015f565b610168565b61015f565b9050919050565b5f819050919050565b6101a483610171565b6101b86101b082610192565b84845461010e565b825550505050565b5f90565b6101cc6101c0565b6101d781848461019b565b505050565b5b818110156101fa576101ef5f826101c4565b6001810190506101dd565b5050565b601f82111561023f57610210816100e1565b610219846100f3565b81016020851015610228578190505b61023c610234856100f3565b8301826101dc565b50505b505050565b5f82821c905092915050565b5f61025f5f1984600802610244565b1980831691505092915050565b5f6102778383610250565b9150826002028217905092915050565b6102908261004d565b67ffffffffffffffff8111156102a9576102a8610057565b5b6102b382546100b1565b6102be8282856101fe565b5f60209050601f8311600181146102ef575f84156102dd578287015190505b6102e7858261026c565b86555061034e565b601f1984166102fd866100e1565b5f5b82811015610324578489015182556001820191506020850194506020810190506102ff565b86831015610341578489015161033d601f891682610250565b8355505b6001600288020188555050505b505050505050565b61075f806103635f395ff3fe608060405260043610610049575f3560e01c8063200d2ed21461004d5780636f9fb98a14610077578063853828b6146100a1578063a92bd72c146100b7578063d0e30db0146100df575b5f80fd5b348015610058575f80fd5b506100616100e9565b60405161006e9190610359565b60405180910390f35b348015610082575f80fd5b5061008b610174565b6040516100989190610391565b60405180910390f35b3480156100ac575f80fd5b506100b561017b565b005b3480156100c2575f80fd5b506100dd60048036038101906100d89190610408565b610211565b005b6100e76102a3565b005b5f80546100f590610460565b80601f016020809104026020016040519081016040528092919081815260200182805461012190610460565b801561016c5780601f106101435761010080835404028352916020019161016c565b820191905f5260205f20905b81548152906001019060200180831161014f57829003601f168201915b505050505081565b5f47905090565b5f3390508073ffffffffffffffffffffffffffffffffffffffff166108fc6101a1610174565b90811502906040515f60405180830381858888f193505050501580156101c9573d5f803e3d5ffd5b506040518060400160405280600b81526020017f7769746864726177416c6c0000000000000000000000000000000000000000008152505f908161020d919061065a565b5050565b8073ffffffffffffffffffffffffffffffffffffffff166108fc610233610174565b90811502906040515f60405180830381858888f1935050505015801561025b573d5f803e3d5ffd5b506040518060400160405280601181526020017f7769746864726177546f416464726573730000000000000000000000000000008152505f908161029f919061065a565b5050565b6040518060400160405280600781526020017f6465706f736974000000000000000000000000000000000000000000000000008152505f90816102e6919061065a565b50565b5f81519050919050565b5f82825260208201905092915050565b8281835e5f83830152505050565b5f601f19601f8301169050919050565b5f61032b826102e9565b61033581856102f3565b9350610345818560208601610303565b61034e81610311565b840191505092915050565b5f6020820190508181035f8301526103718184610321565b905092915050565b5f819050919050565b61038b81610379565b82525050565b5f6020820190506103a45f830184610382565b92915050565b5f80fd5b5f73ffffffffffffffffffffffffffffffffffffffff82169050919050565b5f6103d7826103ae565b9050919050565b6103e7816103cd565b81146103f1575f80fd5b50565b5f81359050610402816103de565b92915050565b5f6020828403121561041d5761041c6103aa565b5b5f61042a848285016103f4565b91505092915050565b7f4e487b71000000000000000000000000000000000000000000000000000000005f52602260045260245ffd5b5f600282049050600182168061047757607f821691505b60208210810361048a57610489610433565b5b50919050565b7f4e487b71000000000000000000000000000000000000000000000000000000005f52604160045260245ffd5b5f819050815f5260205f209050919050565b5f6020601f8301049050919050565b5f82821b905092915050565b5f600883026105197fffffffffffffffffffffffffffffffffffffffffffffffffffffffffffffffff826104de565b61052386836104de565b95508019841693508086168417925050509392505050565b5f819050919050565b5f61055e61055961055484610379565b61053b565b610379565b9050919050565b5f819050919050565b61057783610544565b61058b61058382610565565b8484546104ea565b825550505050565b5f90565b61059f610593565b6105aa81848461056e565b505050565b5b818110156105cd576105c25f82610597565b6001810190506105b0565b5050565b601f821115610612576105e3816104bd565b6105ec846104cf565b810160208510156105fb578190505b61060f610607856104cf565b8301826105af565b50505b505050565b5f82821c905092915050565b5f6106325f1984600802610617565b1980831691505092915050565b5f61064a8383610623565b9150826002028217905092915050565b610663826102e9565b67ffffffffffffffff81111561067c5761067b610490565b5b6106868254610460565b6106918282856105d1565b5f60209050601f8311600181146106c2575f84156106b0578287015190505b6106ba858261063f565b865550610721565b601f1984166106d0866104bd565b5f5b828110156106f7578489015182556001820191506020850194506020810190506106d2565b868310156107145784890151610710601f891682610623565b8355505b6001600288020188555050505b50505050505056fea2646970667358221220c49ed136e885b778cc2e3fc8d5dceafbb9778371a07d87745a3b700add0471a464736f6c634300081a0033",
					"opcodes": "PUSH1 0x80 PUSH1 0x40 MSTORE PUSH1 0x40 MLOAD DUP1 PUSH1 0x40 ADD PUSH1 0x40 MSTORE DUP1 PUSH1 0x15 DUP2 MSTORE PUSH1 0x20 ADD PUSH32 0x726561647920666F72207472616E73616374696F6E0000000000000000000000 DUP2 MSTORE POP PUSH0 SWAP1 DUP2 PUSH2 0x47 SWAP2 SWAP1 PUSH2 0x287 JUMP JUMPDEST POP PUSH2 0x356 JUMP JUMPDEST PUSH0 DUP2 MLOAD SWAP1 POP SWAP2 SWAP1 POP JUMP JUMPDEST PUSH32 0x4E487B7100000000000000000000000000000000000000000000000000000000 PUSH0 MSTORE PUSH1 0x41 PUSH1 0x4 MSTORE PUSH1 0x24 PUSH0 REVERT JUMPDEST PUSH32 0x4E487B7100000000000000000000000000000000000000000000000000000000 PUSH0 MSTORE PUSH1 0x22 PUSH1 0x4 MSTORE PUSH1 0x24 PUSH0 REVERT JUMPDEST PUSH0 PUSH1 0x2 DUP3 DIV SWAP1 POP PUSH1 0x1 DUP3 AND DUP1 PUSH2 0xC8 JUMPI PUSH1 0x7F DUP3 AND SWAP2 POP JUMPDEST PUSH1 0x20 DUP3 LT DUP2 SUB PUSH2 0xDB JUMPI PUSH2 0xDA PUSH2 0x84 JUMP JUMPDEST JUMPDEST POP SWAP2 SWAP1 POP JUMP JUMPDEST PUSH0 DUP2 SWAP1 POP DUP2 PUSH0 MSTORE PUSH1 0x20 PUSH0 KECCAK256 SWAP1 POP SWAP2 SWAP1 POP JUMP JUMPDEST PUSH0 PUSH1 0x20 PUSH1 0x1F DUP4 ADD DIV SWAP1 POP SWAP2 SWAP1 POP JUMP JUMPDEST PUSH0 DUP3 DUP3 SHL SWAP1 POP SWAP3 SWAP2 POP POP JUMP JUMPDEST PUSH0 PUSH1 0x8 DUP4 MUL PUSH2 0x13D PUSH32 0xFFFFFFFFFFFFFFFFFFFFFFFFFFFFFFFFFFFFFFFFFFFFFFFFFFFFFFFFFFFFFFFF DUP3 PUSH2 0x102 JUMP JUMPDEST PUSH2 0x147 DUP7 DUP4 PUSH2 0x102 JUMP JUMPDEST SWAP6 POP DUP1 NOT DUP5 AND SWAP4 POP DUP1 DUP7 AND DUP5 OR SWAP3 POP POP POP SWAP4 SWAP3 POP POP POP JUMP JUMPDEST PUSH0 DUP2 SWAP1 POP SWAP2 SWAP1 POP JUMP JUMPDEST PUSH0 DUP2 SWAP1 POP SWAP2 SWAP1 POP JUMP JUMPDEST PUSH0 PUSH2 0x18B PUSH2 0x186 PUSH2 0x181 DUP5 PUSH2 0x15F JUMP JUMPDEST PUSH2 0x168 JUMP JUMPDEST PUSH2 0x15F JUMP JUMPDEST SWAP1 POP SWAP2 SWAP1 POP JUMP JUMPDEST PUSH0 DUP2 SWAP1 POP SWAP2 SWAP1 POP JUMP JUMPDEST PUSH2 0x1A4 DUP4 PUSH2 0x171 JUMP JUMPDEST PUSH2 0x1B8 PUSH2 0x1B0 DUP3 PUSH2 0x192 JUMP JUMPDEST DUP5 DUP5 SLOAD PUSH2 0x10E JUMP JUMPDEST DUP3 SSTORE POP POP POP POP JUMP JUMPDEST PUSH0 SWAP1 JUMP JUMPDEST PUSH2 0x1CC PUSH2 0x1C0 JUMP JUMPDEST PUSH2 0x1D7 DUP2 DUP5 DUP5 PUSH2 0x19B JUMP JUMPDEST POP POP POP JUMP JUMPDEST JUMPDEST DUP2 DUP2 LT ISZERO PUSH2 0x1FA JUMPI PUSH2 0x1EF PUSH0 DUP3 PUSH2 0x1C4 JUMP JUMPDEST PUSH1 0x1 DUP2 ADD SWAP1 POP PUSH2 0x1DD JUMP JUMPDEST POP POP JUMP JUMPDEST PUSH1 0x1F DUP3 GT ISZERO PUSH2 0x23F JUMPI PUSH2 0x210 DUP2 PUSH2 0xE1 JUMP JUMPDEST PUSH2 0x219 DUP5 PUSH2 0xF3 JUMP JUMPDEST DUP2 ADD PUSH1 0x20 DUP6 LT ISZERO PUSH2 0x228 JUMPI DUP2 SWAP1 POP JUMPDEST PUSH2 0x23C PUSH2 0x234 DUP6 PUSH2 0xF3 JUMP JUMPDEST DUP4 ADD DUP3 PUSH2 0x1DC JUMP JUMPDEST POP POP JUMPDEST POP POP POP JUMP JUMPDEST PUSH0 DUP3 DUP3 SHR SWAP1 POP SWAP3 SWAP2 POP POP JUMP JUMPDEST PUSH0 PUSH2 0x25F PUSH0 NOT DUP5 PUSH1 0x8 MUL PUSH2 0x244 JUMP JUMPDEST NOT DUP1 DUP4 AND SWAP2 POP POP SWAP3 SWAP2 POP POP JUMP JUMPDEST PUSH0 PUSH2 0x277 DUP4 DUP4 PUSH2 0x250 JUMP JUMPDEST SWAP2 POP DUP3 PUSH1 0x2 MUL DUP3 OR SWAP1 POP SWAP3 SWAP2 POP POP JUMP JUMPDEST PUSH2 0x290 DUP3 PUSH2 0x4D JUMP JUMPDEST PUSH8 0xFFFFFFFFFFFFFFFF DUP2 GT ISZERO PUSH2 0x2A9 JUMPI PUSH2 0x2A8 PUSH2 0x57 JUMP JUMPDEST JUMPDEST PUSH2 0x2B3 DUP3 SLOAD PUSH2 0xB1 JUMP JUMPDEST PUSH2 0x2BE DUP3 DUP3 DUP6 PUSH2 0x1FE JUMP JUMPDEST PUSH0 PUSH1 0x20 SWAP1 POP PUSH1 0x1F DUP4 GT PUSH1 0x1 DUP2 EQ PUSH2 0x2EF JUMPI PUSH0 DUP5 ISZERO PUSH2 0x2DD JUMPI DUP3 DUP8 ADD MLOAD SWAP1 POP JUMPDEST PUSH2 0x2E7 DUP6 DUP3 PUSH2 0x26C JUMP JUMPDEST DUP7 SSTORE POP PUSH2 0x34E JUMP JUMPDEST PUSH1 0x1F NOT DUP5 AND PUSH2 0x2FD DUP7 PUSH2 0xE1 JUMP JUMPDEST PUSH0 JUMPDEST DUP3 DUP2 LT ISZERO PUSH2 0x324 JUMPI DUP5 DUP10 ADD MLOAD DUP3 SSTORE PUSH1 0x1 DUP3 ADD SWAP2 POP PUSH1 0x20 DUP6 ADD SWAP5 POP PUSH1 0x20 DUP2 ADD SWAP1 POP PUSH2 0x2FF JUMP JUMPDEST DUP7 DUP4 LT ISZERO PUSH2 0x341 JUMPI DUP5 DUP10 ADD MLOAD PUSH2 0x33D PUSH1 0x1F DUP10 AND DUP3 PUSH2 0x250 JUMP JUMPDEST DUP4 SSTORE POP JUMPDEST PUSH1 0x1 PUSH1 0x2 DUP9 MUL ADD DUP9 SSTORE POP POP POP JUMPDEST POP POP POP POP POP POP JUMP JUMPDEST PUSH2 0x75F DUP1 PUSH2 0x363 PUSH0 CODECOPY PUSH0 RETURN INVALID PUSH1 0x80 PUSH1 0x40 MSTORE PUSH1 0x4 CALLDATASIZE LT PUSH2 0x49 JUMPI PUSH0 CALLDATALOAD PUSH1 0xE0 SHR DUP1 PUSH4 0x200D2ED2 EQ PUSH2 0x4D JUMPI DUP1 PUSH4 0x6F9FB98A EQ PUSH2 0x77 JUMPI DUP1 PUSH4 0x853828B6 EQ PUSH2 0xA1 JUMPI DUP1 PUSH4 0xA92BD72C EQ PUSH2 0xB7 JUMPI DUP1 PUSH4 0xD0E30DB0 EQ PUSH2 0xDF JUMPI JUMPDEST PUSH0 DUP1 REVERT JUMPDEST CALLVALUE DUP1 ISZERO PUSH2 0x58 JUMPI PUSH0 DUP1 REVERT JUMPDEST POP PUSH2 0x61 PUSH2 0xE9 JUMP JUMPDEST PUSH1 0x40 MLOAD PUSH2 0x6E SWAP2 SWAP1 PUSH2 0x359 JUMP JUMPDEST PUSH1 0x40 MLOAD DUP1 SWAP2 SUB SWAP1 RETURN JUMPDEST CALLVALUE DUP1 ISZERO PUSH2 0x82 JUMPI PUSH0 DUP1 REVERT JUMPDEST POP PUSH2 0x8B PUSH2 0x174 JUMP JUMPDEST PUSH1 0x40 MLOAD PUSH2 0x98 SWAP2 SWAP1 PUSH2 0x391 JUMP JUMPDEST PUSH1 0x40 MLOAD DUP1 SWAP2 SUB SWAP1 RETURN JUMPDEST CALLVALUE DUP1 ISZERO PUSH2 0xAC JUMPI PUSH0 DUP1 REVERT JUMPDEST POP PUSH2 0xB5 PUSH2 0x17B JUMP JUMPDEST STOP JUMPDEST CALLVALUE DUP1 ISZERO PUSH2 0xC2 JUMPI PUSH0 DUP1 REVERT JUMPDEST POP PUSH2 0xDD PUSH1 0x4 DUP1 CALLDATASIZE SUB DUP2 ADD SWAP1 PUSH2 0xD8 SWAP2 SWAP1 PUSH2 0x408 JUMP JUMPDEST PUSH2 0x211 JUMP JUMPDEST STOP JUMPDEST PUSH2 0xE7 PUSH2 0x2A3 JUMP JUMPDEST STOP JUMPDEST PUSH0 DUP1 SLOAD PUSH2 0xF5 SWAP1 PUSH2 0x460 JUMP JUMPDEST DUP1 PUSH1 0x1F ADD PUSH1 0x20 DUP1 SWAP2 DIV MUL PUSH1 0x20 ADD PUSH1 0x40 MLOAD SWAP1 DUP2 ADD PUSH1 0x40 MSTORE DUP1 SWAP3 SWAP2 SWAP1 DUP2 DUP2 MSTORE PUSH1 0x20 ADD DUP3 DUP1 SLOAD PUSH2 0x121 SWAP1 PUSH2 0x460 JUMP JUMPDEST DUP1 ISZERO PUSH2 0x16C JUMPI DUP1 PUSH1 0x1F LT PUSH2 0x143 JUMPI PUSH2 0x100 DUP1 DUP4 SLOAD DIV MUL DUP4 MSTORE SWAP2 PUSH1 0x20 ADD SWAP2 PUSH2 0x16C JUMP JUMPDEST DUP3 ADD SWAP2 SWAP1 PUSH0 MSTORE PUSH1 0x20 PUSH0 KECCAK256 SWAP1 JUMPDEST DUP2 SLOAD DUP2 MSTORE SWAP1 PUSH1 0x1 ADD SWAP1 PUSH1 0x20 ADD DUP1 DUP4 GT PUSH2 0x14F JUMPI DUP3 SWAP1 SUB PUSH1 0x1F AND DUP3 ADD SWAP2 JUMPDEST POP POP POP POP POP DUP2 JUMP JUMPDEST PUSH0 SELFBALANCE SWAP1 POP SWAP1 JUMP JUMPDEST PUSH0 CALLER SWAP1 POP DUP1 PUSH20 0xFFFFFFFFFFFFFFFFFFFFFFFFFFFFFFFFFFFFFFFF AND PUSH2 0x8FC PUSH2 0x1A1 PUSH2 0x174 JUMP JUMPDEST SWAP1 DUP2 ISZERO MUL SWAP1 PUSH1 0x40 MLOAD PUSH0 PUSH1 0x40 MLOAD DUP1 DUP4 SUB DUP2 DUP6 DUP9 DUP9 CALL SWAP4 POP POP POP POP ISZERO DUP1 ISZERO PUSH2 0x1C9 JUMPI RETURNDATASIZE PUSH0 DUP1 RETURNDATACOPY RETURNDATASIZE PUSH0 REVERT JUMPDEST POP PUSH1 0x40 MLOAD DUP1 PUSH1 0x40 ADD PUSH1 0x40 MSTORE DUP1 PUSH1 0xB DUP2 MSTORE PUSH1 0x20 ADD PUSH32 0x7769746864726177416C6C000000000000000000000000000000000000000000 DUP2 MSTORE POP PUSH0 SWAP1 DUP2 PUSH2 0x20D SWAP2 SWAP1 PUSH2 0x65A JUMP JUMPDEST POP POP JUMP JUMPDEST DUP1 PUSH20 0xFFFFFFFFFFFFFFFFFFFFFFFFFFFFFFFFFFFFFFFF AND PUSH2 0x8FC PUSH2 0x233 PUSH2 0x174 JUMP JUMPDEST SWAP1 DUP2 ISZERO MUL SWAP1 PUSH1 0x40 MLOAD PUSH0 PUSH1 0x40 MLOAD DUP1 DUP4 SUB DUP2 DUP6 DUP9 DUP9 CALL SWAP4 POP POP POP POP ISZERO DUP1 ISZERO PUSH2 0x25B JUMPI RETURNDATASIZE PUSH0 DUP1 RETURNDATACOPY RETURNDATASIZE PUSH0 REVERT JUMPDEST POP PUSH1 0x40 MLOAD DUP1 PUSH1 0x40 ADD PUSH1 0x40 MSTORE DUP1 PUSH1 0x11 DUP2 MSTORE PUSH1 0x20 ADD PUSH32 0x7769746864726177546F41646472657373000000000000000000000000000000 DUP2 MSTORE POP PUSH0 SWAP1 DUP2 PUSH2 0x29F SWAP2 SWAP1 PUSH2 0x65A JUMP JUMPDEST POP POP JUMP JUMPDEST PUSH1 0x40 MLOAD DUP1 PUSH1 0x40 ADD PUSH1 0x40 MSTORE DUP1 PUSH1 0x7 DUP2 MSTORE PUSH1 0x20 ADD PUSH32 0x6465706F73697400000000000000000000000000000000000000000000000000 DUP2 MSTORE POP PUSH0 SWAP1 DUP2 PUSH2 0x2E6 SWAP2 SWAP1 PUSH2 0x65A JUMP JUMPDEST POP JUMP JUMPDEST PUSH0 DUP2 MLOAD SWAP1 POP SWAP2 SWAP1 POP JUMP JUMPDEST PUSH0 DUP3 DUP3 MSTORE PUSH1 0x20 DUP3 ADD SWAP1 POP SWAP3 SWAP2 POP POP JUMP JUMPDEST DUP3 DUP2 DUP4 MCOPY PUSH0 DUP4 DUP4 ADD MSTORE POP POP POP JUMP JUMPDEST PUSH0 PUSH1 0x1F NOT PUSH1 0x1F DUP4 ADD AND SWAP1 POP SWAP2 SWAP1 POP JUMP JUMPDEST PUSH0 PUSH2 0x32B DUP3 PUSH2 0x2E9 JUMP JUMPDEST PUSH2 0x335 DUP2 DUP6 PUSH2 0x2F3 JUMP JUMPDEST SWAP4 POP PUSH2 0x345 DUP2 DUP6 PUSH1 0x20 DUP7 ADD PUSH2 0x303 JUMP JUMPDEST PUSH2 0x34E DUP2 PUSH2 0x311 JUMP JUMPDEST DUP5 ADD SWAP2 POP POP SWAP3 SWAP2 POP POP JUMP JUMPDEST PUSH0 PUSH1 0x20 DUP3 ADD SWAP1 POP DUP2 DUP2 SUB PUSH0 DUP4 ADD MSTORE PUSH2 0x371 DUP2 DUP5 PUSH2 0x321 JUMP JUMPDEST SWAP1 POP SWAP3 SWAP2 POP POP JUMP JUMPDEST PUSH0 DUP2 SWAP1 POP SWAP2 SWAP1 POP JUMP JUMPDEST PUSH2 0x38B DUP2 PUSH2 0x379 JUMP JUMPDEST DUP3 MSTORE POP POP JUMP JUMPDEST PUSH0 PUSH1 0x20 DUP3 ADD SWAP1 POP PUSH2 0x3A4 PUSH0 DUP4 ADD DUP5 PUSH2 0x382 JUMP JUMPDEST SWAP3 SWAP2 POP POP JUMP JUMPDEST PUSH0 DUP1 REVERT JUMPDEST PUSH0 PUSH20 0xFFFFFFFFFFFFFFFFFFFFFFFFFFFFFFFFFFFFFFFF DUP3 AND SWAP1 POP SWAP2 SWAP1 POP JUMP JUMPDEST PUSH0 PUSH2 0x3D7 DUP3 PUSH2 0x3AE JUMP JUMPDEST SWAP1 POP SWAP2 SWAP1 POP JUMP JUMPDEST PUSH2 0x3E7 DUP2 PUSH2 0x3CD JUMP JUMPDEST DUP2 EQ PUSH2 0x3F1 JUMPI PUSH0 DUP1 REVERT JUMPDEST POP JUMP JUMPDEST PUSH0 DUP2 CALLDATALOAD SWAP1 POP PUSH2 0x402 DUP2 PUSH2 0x3DE JUMP JUMPDEST SWAP3 SWAP2 POP POP JUMP JUMPDEST PUSH0 PUSH1 0x20 DUP3 DUP5 SUB SLT ISZERO PUSH2 0x41D JUMPI PUSH2 0x41C PUSH2 0x3AA JUMP JUMPDEST JUMPDEST PUSH0 PUSH2 0x42A DUP5 DUP3 DUP6 ADD PUSH2 0x3F4 JUMP JUMPDEST SWAP2 POP POP SWAP3 SWAP2 POP POP JUMP JUMPDEST PUSH32 0x4E487B7100000000000000000000000000000000000000000000000000000000 PUSH0 MSTORE PUSH1 0x22 PUSH1 0x4 MSTORE PUSH1 0x24 PUSH0 REVERT JUMPDEST PUSH0 PUSH1 0x2 DUP3 DIV SWAP1 POP PUSH1 0x1 DUP3 AND DUP1 PUSH2 0x477 JUMPI PUSH1 0x7F DUP3 AND SWAP2 POP JUMPDEST PUSH1 0x20 DUP3 LT DUP2 SUB PUSH2 0x48A JUMPI PUSH2 0x489 PUSH2 0x433 JUMP JUMPDEST JUMPDEST POP SWAP2 SWAP1 POP JUMP JUMPDEST PUSH32 0x4E487B7100000000000000000000000000000000000000000000000000000000 PUSH0 MSTORE PUSH1 0x41 PUSH1 0x4 MSTORE PUSH1 0x24 PUSH0 REVERT JUMPDEST PUSH0 DUP2 SWAP1 POP DUP2 PUSH0 MSTORE PUSH1 0x20 PUSH0 KECCAK256 SWAP1 POP SWAP2 SWAP1 POP JUMP JUMPDEST PUSH0 PUSH1 0x20 PUSH1 0x1F DUP4 ADD DIV SWAP1 POP SWAP2 SWAP1 POP JUMP JUMPDEST PUSH0 DUP3 DUP3 SHL SWAP1 POP SWAP3 SWAP2 POP POP JUMP JUMPDEST PUSH0 PUSH1 0x8 DUP4 MUL PUSH2 0x519 PUSH32 0xFFFFFFFFFFFFFFFFFFFFFFFFFFFFFFFFFFFFFFFFFFFFFFFFFFFFFFFFFFFFFFFF DUP3 PUSH2 0x4DE JUMP JUMPDEST PUSH2 0x523 DUP7 DUP4 PUSH2 0x4DE JUMP JUMPDEST SWAP6 POP DUP1 NOT DUP5 AND SWAP4 POP DUP1 DUP7 AND DUP5 OR SWAP3 POP POP POP SWAP4 SWAP3 POP POP POP JUMP JUMPDEST PUSH0 DUP2 SWAP1 POP SWAP2 SWAP1 POP JUMP JUMPDEST PUSH0 PUSH2 0x55E PUSH2 0x559 PUSH2 0x554 DUP5 PUSH2 0x379 JUMP JUMPDEST PUSH2 0x53B JUMP JUMPDEST PUSH2 0x379 JUMP JUMPDEST SWAP1 POP SWAP2 SWAP1 POP JUMP JUMPDEST PUSH0 DUP2 SWAP1 POP SWAP2 SWAP1 POP JUMP JUMPDEST PUSH2 0x577 DUP4 PUSH2 0x544 JUMP JUMPDEST PUSH2 0x58B PUSH2 0x583 DUP3 PUSH2 0x565 JUMP JUMPDEST DUP5 DUP5 SLOAD PUSH2 0x4EA JUMP JUMPDEST DUP3 SSTORE POP POP POP POP JUMP JUMPDEST PUSH0 SWAP1 JUMP JUMPDEST PUSH2 0x59F PUSH2 0x593 JUMP JUMPDEST PUSH2 0x5AA DUP2 DUP5 DUP5 PUSH2 0x56E JUMP JUMPDEST POP POP POP JUMP JUMPDEST JUMPDEST DUP2 DUP2 LT ISZERO PUSH2 0x5CD JUMPI PUSH2 0x5C2 PUSH0 DUP3 PUSH2 0x597 JUMP JUMPDEST PUSH1 0x1 DUP2 ADD SWAP1 POP PUSH2 0x5B0 JUMP JUMPDEST POP POP JUMP JUMPDEST PUSH1 0x1F DUP3 GT ISZERO PUSH2 0x612 JUMPI PUSH2 0x5E3 DUP2 PUSH2 0x4BD JUMP JUMPDEST PUSH2 0x5EC DUP5 PUSH2 0x4CF JUMP JUMPDEST DUP2 ADD PUSH1 0x20 DUP6 LT ISZERO PUSH2 0x5FB JUMPI DUP2 SWAP1 POP JUMPDEST PUSH2 0x60F PUSH2 0x607 DUP6 PUSH2 0x4CF JUMP JUMPDEST DUP4 ADD DUP3 PUSH2 0x5AF JUMP JUMPDEST POP POP JUMPDEST POP POP POP JUMP JUMPDEST PUSH0 DUP3 DUP3 SHR SWAP1 POP SWAP3 SWAP2 POP POP JUMP JUMPDEST PUSH0 PUSH2 0x632 PUSH0 NOT DUP5 PUSH1 0x8 MUL PUSH2 0x617 JUMP JUMPDEST NOT DUP1 DUP4 AND SWAP2 POP POP SWAP3 SWAP2 POP POP JUMP JUMPDEST PUSH0 PUSH2 0x64A DUP4 DUP4 PUSH2 0x623 JUMP JUMPDEST SWAP2 POP DUP3 PUSH1 0x2 MUL DUP3 OR SWAP1 POP SWAP3 SWAP2 POP POP JUMP JUMPDEST PUSH2 0x663 DUP3 PUSH2 0x2E9 JUMP JUMPDEST PUSH8 0xFFFFFFFFFFFFFFFF DUP2 GT ISZERO PUSH2 0x67C JUMPI PUSH2 0x67B PUSH2 0x490 JUMP JUMPDEST JUMPDEST PUSH2 0x686 DUP3 SLOAD PUSH2 0x460 JUMP JUMPDEST PUSH2 0x691 DUP3 DUP3 DUP6 PUSH2 0x5D1 JUMP JUMPDEST PUSH0 PUSH1 0x20 SWAP1 POP PUSH1 0x1F DUP4 GT PUSH1 0x1 DUP2 EQ PUSH2 0x6C2 JUMPI PUSH0 DUP5 ISZERO PUSH2 0x6B0 JUMPI DUP3 DUP8 ADD MLOAD SWAP1 POP JUMPDEST PUSH2 0x6BA DUP6 DUP3 PUSH2 0x63F JUMP JUMPDEST DUP7 SSTORE POP PUSH2 0x721 JUMP JUMPDEST PUSH1 0x1F NOT DUP5 AND PUSH2 0x6D0 DUP7 PUSH2 0x4BD JUMP JUMPDEST PUSH0 JUMPDEST DUP3 DUP2 LT ISZERO PUSH2 0x6F7 JUMPI DUP5 DUP10 ADD MLOAD DUP3 SSTORE PUSH1 0x1 DUP3 ADD SWAP2 POP PUSH1 0x20 DUP6 ADD SWAP5 POP PUSH1 0x20 DUP2 ADD SWAP1 POP PUSH2 0x6D2 JUMP JUMPDEST DUP7 DUP4 LT ISZERO PUSH2 0x714 JUMPI DUP5 DUP10 ADD MLOAD PUSH2 0x710 PUSH1 0x1F DUP10 AND DUP3 PUSH2 0x623 JUMP JUMPDEST DUP4 SSTORE POP JUMPDEST PUSH1 0x1 PUSH1 0x2 DUP9 MUL ADD DUP9 SSTORE POP POP POP JUMPDEST POP POP POP POP POP POP JUMP INVALID LOG2 PUSH5 0x6970667358 0x22 SLT KECCAK256 0xC4 SWAP15 0xD1 CALLDATASIZE 0xE8 DUP6 0xB7 PUSH25 0xCC2E3FC8D5DCEAFBB9778371A07D87745A3B700ADD0471A464 PUSH20 0x6F6C634300081A00330000000000000000000000 "
				},
				"gasEstimates": {
					"creation": {
						"codeDepositCost": "377400",
						"executionCost": "infinite",
						"totalCost": "infinite"
					},
					"external": {
						"deposit()": "infinite",
						"getContractBalance()": "334",
						"status()": "infinite",
						"withdrawAll()": "infinite",
						"withdrawToAddress(address)": "infinite"
					}
				},
				"methodIdentifiers": {
					"deposit()": "d0e30db0",
					"getContractBalance()": "6f9fb98a",
					"status()": "200d2ed2",
					"withdrawAll()": "853828b6",
					"withdrawToAddress(address)": "a92bd72c"
				}
			},
			"storageLayout": {
				"storage": [
					{
						"astId": 3,
						"contract": "contracts/send_withdraw_money.sol:SendWithdrawMoney",
						"label": "status",
						"offset": 0,
						"slot": "0",
						"type": "t_string_storage"
					}
				],
				"types": {
					"t_string_storage": {
						"encoding": "bytes",
						"label": "string",
						"numberOfBytes": "32"
					}
				}
			},
			"userdoc": {
				"kind": "user",
				"methods": {},
				"version": 1
			}
		}
	}
}